:020000040000FA
:10000000C85600109D020000A5020000A7020000D3
:10001000A9020000AB020000AD02000000000000D9
:10002000000000000000000000000000AF0200001F
:10003000B102000000000000B302000051550000B2
:10004000B7020000FB0700001308000023080000AF
:10005000330800003D9E0000B7020000B702000018
:10006000099F0000B7020000B7020000B7020000BD
:10007000B7020000B7020000B7020000B70200009C
:10008000B7020000C5BC0000B7020000B7020000C4
:10009000B7020000B7020000B7020000B70200007C
:1000A0007BB40000B7020000B7020000B7020000F6
:1000B000B7020000B7020000B7020000B70200005C
:1000C000B7020000B7020000B7020000B70200004C
:1000D000B7020000B702000029050000B7020000C7
:1000E000B702000000F002F800F0A0F80AA090E8C3
:1000F000000C82448344AAF10107DA4501D100F0E3
:1001000095F8AFF2090EBAE80F0013F0010F18BF0F
:10011000FB1A43F001031847B44C0100D44C010012
:100120000A4410F8014B14F00F0508BF10F8015BEA
:10013000240908BF10F8014B6D1E05D010F8013BD3
:100140006D1E01F8013BF9D1641E03D0641E01F855
:10015000015BFBD19142E4D37047000000230024EF
:1001600000250026103A28BF78C1FBD8520728BFC7
:1001700030C148BF0B6070476E290CF05D8170295B
:100180000CF09F8266290FF0308165290FF02D81D8
:1001900067290FF02A816129AFF3008003681B0AE9
:1001A00028BF41F0800169290BF0768664290BF0A5
:1001B000738675290BF070866F290CF02C827829D4
:1001C0000CF06B82E9290CF0C781E4290CF0C481A2
:1001D000F5290CF0C181EF290CF02982F8290CF0E7
:1001E0006A820368DB0928BF41F0800163290CF0B3
:1001F000D58473290CF0DA84E3290CF0E584F32923
:100200000CF0EA84002070471FB50CF03BFD0400A1
:10021000002000210DF07EFF401C606000200021C6
:100220000DF062FFE0601FBD10B510BD0CF0FCFCCE
:100230001146FFF7E9FF00F09AF90CF0D9FD03B47D
:10024000FFF7F2FF03BC0CF0DDFD000040BA704781
:10025000C0BA70474FF4C030006885460148006856
:10026000004700BF048001000A4A02EB011110227E
:10027000A1F500710BF05FBF074A01EB410102EBF2
:100280008101A1F5C0710A6802604A68426089680C
:1002900081607047840301007409010009488047A8
:1002A00009480047FEE7FEE7FEE7FEE7FEE7FEE758
:1002B000FEE7FEE7FEE7FEE704480549034A054B73
:1002C00070470000E58D0000E5000000C8540010F4
:1002D000C8560010C85400101CB50C46064B7B4491
:1002E0006946009020460CF0C0F80446002069469C
:1002F0000CF0CEF820461CBDAFC10000FFFFFFFF91
:10030000834840F20121C0F88011C0F88411C0F880
:100310008811C0F88C11C0F89011C0F89411C0F881
:100320009811C0F89C11C0F8A011C0F8A411C0F831
:10033000A811C0F8AC11C0F8B011C0F8B411C0F8E1
:10034000B811C0F8BC11C0F8C011C0F8C411C0F891
:10035000C811C0F8CC11C0F8D011C0F8D411C0F841
:10036000D811C0F8DC11C0F8E011C0F8E411C0F8F1
:10037000E811C0F8EC11C0F8F011C0F8F411C0F8A1
:10038000F811C0F8FC11C0F80012C0F80412C0F84F
:100390000812C0F80C12C0F81012C0F81412C0F8FD
:1003A0001812C0F81C12C0F82012C0F82412C0F8AD
:1003B0002812C0F82C12C0F83012C0F83412C0F85D
:1003C0003812C0F83C12C0F84012C0F84412C0F80D
:1003D0004812C0F84C12C0F85012C0F85412C0F8BD
:1003E0005812C0F85C12C0F86412C0F84011C0F88E
:1003F0004411C0F84811C0F85011C0F86011C0F89D
:100400007011C0F87411C0F87811C0F87C117047F1
:100410002DE9F041DFF8FC80434653F8C40F40F467
:100420000060186041F61F70C3F818013A4C0122B1
:1004300022600026A660FFF763FF3848384900684D
:10044000B0FBF1F5D86B00B16D084FF47A77B7FBCC
:10045000F5F101F11300B0FBF1F323630F236363A4
:10046000A663E263B0FBF1F0801C2064626401F1DA
:100470003E00B0FBF1FCC4F848C0B0FBF1FCC4F88E
:100480004CC02365B0FBF1F06065A265A26240F24A
:100490000330C4F804014FF48D40C4F80001C4F8DF
:1004A00000016421002000F055F940F28310206221
:1004B000C821002000F04EF940F203102062022013
:1004C0006062401C8028FCD340F2E7104543B5FB36
:1004D000F7F080B2606283202062124800682662D2
:1004E000D4F8000140F40020C4F8000101210020EC
:1004F00000F030F90121002000F02CF9D8F8DC11CF
:1005000021F01F0141F01101C8F8DC11BDE8F081B4
:1005100000C0024000C00F4000C00920640100106C
:1005200040420F00004006A010B501221321002018
:1005300008F035FD002819D0774901224020C1F884
:1005400080017648401EFDD17548764903681BB18D
:10055000002202600F2001E0026002200860BDE876
:1005600010404FF40021002008F038BD10BD1FB529
:10057000002008F01AFE4FF47A71B0FBF1F0684EDB
:1005800000240F25401E3460B0F1807F0DD220F092
:100590007F414FF0E020491E41615F4AF8210B3254
:1005A00082F8141D8461072101610122D104002019
:1005B00008F0D9FC05F04EF905F0A5F805F0CEF8E5
:1005C00005F0CCF83460FFF723FF002000F0D6F9E7
:1005D00055480021406900F0FAF9012000F0CEF9F9
:1005E000002005F013F94F4F4FF050186FF07F497E
:1005F0003D604E4D05F0A9F90646FF2805D0286854
:10060000401C2860022802D011E02C600FE0404618
:100610002C6000F0ADFA324645A101A80BF0FEFBBC
:100620004B4601AA28217820009400F0B1FB3868DD
:10063000022804D00F28DDD107F032FBDAE705F0FD
:100640005BFAD7E770B501213AA00AF0CDFB041E92
:100650000EDD3B4D4FF480763246204629680AF085
:1006600065FC0028F8D12046BDE870400AF0F7BDCF
:1006700070BD2DE9F04701212EA00AF0B5FB061E42
:1006800020DD2F4F4FF48078424639680AF04EFC47
:1006900002212CA00AF0A8FB051E13DDC146DFF8DD
:1006A000B08000244A46284639680AF052FD0444C6
:1006B0004445F7D328460AF0D2FD3046BDE8F0475E
:1006C0000AF0CDBDBDE8F0872DE9F041012119A068
:1006D0000AF08AFB071E1DDD02211AA00AF084FB26
:1006E000061E17DD164D4FF48078424638462968BD
:1006F0000AF01CFC04460246304629680AF029FD2F
:10070000002CF2D130460AF0AAFD3846BDE8F0418F
:100710000AF0A5BDBDE8F08104E000E0FDFFFF00A8
:1007200058010010600100101C000010740000103F
:10073000253264007570646174652E62696E000014
:10074000EC0100104A4B32353230422E54585400DE
:1007500080969800F0B5834A0023FF25042612688E
:100760004FF0020C4FF47A740127A8B1012824D06D
:10077000022832D003280ED17B48C0F804C0C360E1
:10078000B2FBF4F2521E4A43826105604661476043
:100790004168C907FCD1F0BD4FF04020C0F804C04B
:1007A000C360B2FBF4F2521E4A43826105604661A7
:1007B00047604168C907FCD1F0BD6C48C0F804C06F
:1007C000C360B2FBF4F2521E4A4382610560466187
:1007D00047604168C907FCD1F0BD6548C0F804C056
:1007E000C360B2FBF4F2521E4A4382610560466167
:1007F00047604168C907FCD1F0BD4FF0402101209E
:1008000008605C480168491C01600169491C01617C
:10081000704756490120086056484168491C4160AC
:10082000704753490120086052488168491C816023
:1008300070474D49012008604E48C168491CC1609D
:100840007047012138B1012808D0022809D00328B7
:1008500006D1454803E04FF0402000E043484160A6
:1008600070474348FBE7002140B1012809D0404AC6
:10087000022801D0032800D1516070474FF040207A
:1008800000E03A484160704738B101280CD0022896
:100890000CD0032807D1344809E04FF040214868C4
:1008A00040F0020048607047304800E0304841683E
:1008B00041F002014160704770B500242D4D2E4A71
:1008C0004EF65F26032338B1012816D0022824D023
:1008D00003282DD0002070BD2C6052F8C40F40F0CA
:1008E000020010604FF04020426842F00202426075
:1008F000C66081614361012024E06C6052F8C40F3E
:1009000040F0040010601948426842F0040242605E
:10091000C66081614361022014E0AC6052F8C40FEC
:1009200040F480001060124881614361032009E0B7
:10093000EC6052F8C40F40F4000010600A48816176
:100940004361042000F002F8012070BD00F01F0296
:10095000012191404009800000F1E020C0F8001121
:10096000704700006801001000400940008000400E
:10097000000009400000001000C00F40F84908B511
:100980000028886942F210720CD040F001008861A2
:100990000092886940F4006088610098401E0090D1
:1009A000F7D108BD20F40060886110460092401E17
:1009B0000090FCD1886920F00100886108BDE94AF7
:1009C000002108C8491C08C28029FAD3704770B5B5
:1009D000E64BE54C4FF0270208001A615A61C3F854
:1009E0007022C3F87422C3F81821C3F81C21C3F87D
:1009F0002021C3F824219A61DA61C3F8D020C3F81A
:100A0000D420C3F8D820C3F8DC20C3F8E020C3F812
:100A1000E4201A625A62C3F83021C3F83421C3F8C3
:100A2000E820C3F8EC20C3F8F020C3F8F420C3F8A2
:100A30000821C3F81421C3F80C21C3F81021C3F80E
:100A40000021CB4A116C41F002011164916D41F01B
:100A50000A019165C74951F8C42F42F001020A60AA
:100A6000C54A136823F001031360BD4A4FF0000329
:100A70009361956925F00E059561956945F00A0524
:100A80009561956945F020059561956925F080058A
:100A90009561956925F480759561956925F40075D2
:100AA0009561956925F480659561956925F40065E2
:100AB0009561B24DB24E2D68B5FBF6F5C1F8F45014
:100AC000916841F080619160916821F0200191600E
:100AD000916841F400619160916841F480519160A6
:100AE000916821F400519160916821F480419160F6
:100AF0009168A44D01EA050191609168A24D41EA17
:100B0000050191601360116841F01C51116011687A
:100B100041F480211160116841F480711160116805
:100B200041F0740111605360516841F000615160FF
:100B3000516841F400215160516841F48061516075
:100B4000516840F20F1341EA03015160146154618E
:100B500001D0FFF734FF00204FF47F01CA1102C417
:100B6000401C9042FBD342F20E70401EFDD170BD7E
:100B70007D4A00214FF4FF3301C2491C9942FBD347
:100B80007047F0B5A1EB0114E401804DA4EB8004A3
:100B90002C44121A0025C2F5F076591A059F09E077
:100BA000002002E044F80479401C8242FAD8A4EB09
:100BB00086046D1CA942F3D8F0BD6B4BB0F5F07FF5
:100BC0000DD2B1F5887F0AD2A1F20F11C0F5F070F5
:100BD000A1EB011100EB4110401E43F820207047AB
:100BE0002DE9F0431746DDF81C901E460D460446DD
:100BF000B84201D9274694B2B54201D90E469DB2FA
:100C0000381B711B00B20FFA81FC68B1BCF1000FF8
:100C100015D0604531DDC0EB4C010EB24FEA4C01FE
:100C2000404201EB400825E04A4629462046FFF7AE
:100C3000C4FF6D1CADB2AE42F6D2BDE8F0834A46A9
:100C400029462046FFF7B9FF641CA4B2A742F6D29A
:100C5000F3E74A4629462046FFF7AFFF641CA4B2DB
:100C6000002E04DD6D1CADB208EB060001E006EBC2
:100C70004C0006B2BC42ECD11BE0CCEB40010FB201
:100C80004FEA4C01404201EB400810E04A46294639
:100C90002046FFF792FF6D1CADB2002F04DD641CEF
:100CA000A4B208EB070001E007EB4C0007B2B54225
:100CB000ECD14A4629462046BDE8F0437DE72DE9C0
:100CC000FF5F884606469A4611466846DDF838B00A
:100CD000FFF7CAFA0025E946002419F805C008EB19
:100CE000050700BFC4F107002CFA00F0C00706EBAF
:100CF0000400B9B280B201D0524600E05A46FFF774
:100D00005CFF641C082CEDD36D1C102DE4D3BDE8F2
:100D1000FF9F2DE9FE4F0F4681469A4611466846D1
:100D2000FFF7AAFA0025E846002418F8056007EB4B
:100D3000050C00BFC4F1070026FA00F0C00707D079
:100D400009EB04001FFA8CF180B25246FFF735FF21
:100D5000641C082CEED36D1C0C2DE5D3BDE8FE8F72
:100D60000080082000820820000001A000C002408E
:100D70000080092000C00F40008C0820680100108E
:100D80009C997400FFFF00FC0000DF01FCF708A045
:100D90002DE9F8439946DDF8207016460D460446C5
:100DA0004FF4EC7816F8012B4B4629462046009765
:100DB000FFF785FF444502D20834A4B207E0FF2DB7
:100DC0004FF0000402D81035ADB200E000253078B5
:100DD0000028E7D1BDE8F8832DE9FF4F81B09046A8
:100DE0000C46054606460F464FF0000CA6F11400CF
:100DF00080B242462146FFF7E0FEA7F11400761CC0
:100E000081B2B6B242462846FFF7D7FE7F1C0CF1EE
:100E1000010C1FFA8CFCBFB2BCF1280FE6D3A4F181
:100E200014002E4627464FF0000C04F1140AA5F1D9
:100E3000140B05F1140900900098A6F1140881B272
:100E40001FFA88F0049AFFF7B8FE1FFA8AF11FFA1A
:100E500088F0049AFFF7B1FE761CA7F11408B6B229
:100E60001FFA88F11FFA8BF0049AFFF7A6FE1FFA0B
:100E700088F11FFA89F0049AFFF79FFE7F1C0CF19E
:100E8000010C1FFA8CFCBFB2BCF10A0FD4D30026B0
:100E9000A4F1140A04F11409A5F1140805F11407CA
:100EA00005F10A0C1FFA8AF11FFA8CF0049AFFF779
:100EB00084FE1FFA89F11FFA8CF0049AFFF77DFE79
:100EC0006D1C04F10A0CADB21FFA8CF11FFA88F008
:100ED000049AFFF772FE1FFA8CF1B8B2049AFFF77A
:100EE0006CFE641C761CB6B2A4B20A2ED8D305B030
:100EF000BDE8F08F30B50246F9491378002000BFF5
:100F000000EB80140D5D9D4204D10C44557864784B
:100F1000A54204D0401C0004000CF1D0002030BDDC
:100F200030B50246EE4900201378413100EB001441
:100F300011F814509D4205D101EB440455786478B2
:100F4000A54204D0401C80B24228EFD3002030BD1F
:100F50002DE9F04F044684468B46002502FB03F042
:100F6000C1179046DFF87CA300EB517921E0099886
:100F70000026475D380602D5DAF8002001E0DAF8ED
:100F8000042059462046FFF718FE641C7806A4B2D8
:100F9000070EA4EB0C01414505D10BF1010064469D
:100FA0001FFA80FB03E0761CF6B2082EE2D36D1C1C
:100FB000ADB2B5EBE90FDADB9AE72DE9F0478946E8
:100FC000C7490446054602EB02104131DFF814A37D
:100FD00001EB40084FF000065BBB00BF08EB0600CA
:100FE0005FF0000790F802C05FEA0C6002D5DAF803
:100FF000002001E0DAF8042049462046FFF7DDFD35
:101000004FEA4C60641C4FEA106CA4B2601B1028BD
:1010100009D07F1CFFB2082FE6D3761CF6B2202E33
:10102000DCD3BDE8F08709F101002C461FFA80F9F6
:10103000F3E708EB0600002790F802C05FEA0C60B7
:1010400002D5DAF8042001E0DAF80020494620460B
:10105000FFF7B3FD4FEA4C60641C4FEA106CA4B27A
:10106000601B102808D07F1CFFB2082FE6D3761C27
:10107000F6B2202EDDD3D4E709F101002C461FFA89
:1010800080F9F4E72DE9F04789460446054694497E
:1010900002EB8210DFF84CA200EB01084FF00006D3
:1010A00053BB00BF08EB06005FF0000790F802C0DA
:1010B0005FEA0C6002D5DAF8002001E0DAF80420DB
:1010C00049462046FFF779FD4FEA4C60641C4FEA21
:1010D000106CA4B2601B182808D07F1CFFB2082F28
:1010E000E6D3761CF6B23F2EDCD39AE709F1010075
:1010F0002C461FFA80F9F4E708EB06005FF00007C2
:1011000090F802C05FEA0C6002D5DAF8042001E032
:10111000DAF8002049462046FFF74FFD4FEA4C60C1
:10112000641C4FEA106CA4B2601B182808D07F1C06
:10113000FFB2082FE6D3761CF6B23F2EDCD370E761
:1011400009F101002C461FFA80F9F4E730B5144686
:101150000D46024621462846FFF794FF182030BD71
:1011600030B514460D46024621462846FFF725FFB6
:10117000122030BD2DE9F84F9A4615460C4606461A
:1011800000274FF4F0784FF488792A78002A3AD073
:10119000F01986B2802A15D906F11800404505D904
:1011A00016340026A4B24C4500D900242846FFF787
:1011B000A1FE80B2534622463146FFF7C7FF0746DD
:1011C000AD1CE2E70D2A15D00A2A1AD006F10C0050
:1011D000404505D90C340026A4B24C4500D9002462
:1011E000404841680091036821463046FFF767FD9B
:1011F0006D1CCAE71634A4B24C4500D90024002760
:10120000F6E70026FBE7BDE8F88FF8B515460F4670
:10121000064600242878002821D0A0F130010929B1
:1012200001D888B204E02E2815D02D2815D00C2026
:1012300000EBC001C1EB80102B49372301EB80008C
:101240000090301980B220223946FFF781FE203409
:10125000A4B26D1CDEE70A20EAE70B20E8E7F8BD40
:101260002DE9F8430646994615460C4600204FF4F2
:10127000F0774FF488782A78002A40D0304486B23C
:10128000802A14D906F11000B84205D9103400267E
:10129000A4B2444500D900242846FFF741FE80B29D
:1012A0004B4622463146FFF75BFFAD1CE3E70D2AB4
:1012B0001CD00A2A21D006F10800B84205D908340A
:1012C0000026A4B2444500D9002406484168009194
:1012D000036821463046FFF7F2FC0A206D1CCAE77E
:1012E000DEF4000014000010241001001034A4B239
:1012F000444500D900240020F0E70026FBE769E51B
:101300002DE9F8430646994615460C4600204FF451
:10131000F0774FF488782A78002A3AD0304486B2A1
:10132000802A14D906F11000B84205D910340026DD
:10133000A4B2444500D900242846FFF7F1FD80B24D
:101340004B4622463146FFF70BFFAD1CE3E70D2A63
:1013500016D00A2A1BD006F10800B84205D9083475
:101360000026A4B2444500D900244C4841680091AD
:10137000036821463046FFF7CCFC08206D1CCAE705
:101380001034A4B2444500D900240020F6E700261A
:10139000FBE71FE5F0B5062A01D90A2201E002B9F0
:1013A0000122052900D90521914200D911460025C5
:1013B0003B4C202666556D1CEDB20C2DFAD315461C
:1013C0000A270DE0B0FBF7FC07FB1C0CB0FBF7F0A5
:1013D00004EB050E0CF1300C6D1E0EF801CCEDB2D5
:1013E000002DEFD169B1104605E0251815F8015C14
:1013F0002554401EC0B2491EC9B2F6D22E21215436
:1014000000E0A65473B90020511E09E0235C302B84
:1014100008D123185B782E2B04D02654401CC0B270
:101420008842F3DB521CD0B2002102E02154401C60
:10143000C0B20C28FAD3F0BD30B51A4A00214FF4DF
:10144000FF3400BF10F8013B491C10F8015B1B047E
:1014500043EA052310F8015B2B4308C2A142F1D3F4
:1014600030BDF0B50F4900234FF4B5754FF48876C1
:101470005FF0000210F8014B521C10F8017B2404AD
:1014800044EA072410F8017B3C4310C1AA42F1D37F
:101490005B1C01F5EC71B342EAD3F0BD14000010FF
:1014A000684F0010000001A02DE9F84F0024A2466B
:1014B0004FF04C0940F20F18FE4F4FF04E0BFE4814
:1014C000009004EB4401A00001EB041100EB81004B
:1014D00004EB840509EB051680B2B2B24346E42161
:1014E000FFF74FFB012000EB0510E323B2B280B2FF
:1014F00019460097FFF774FBB2B2B0B24346E3213E
:101500000097FFF76DFB4D2000EB051082B25646A9
:1015100080B24346E321CDF800A0FFF761FB0BEB5F
:10152000051082B280B24346E3210096FFF758FBD4
:101530004F2000EB051082B280B24346E3210096B3
:10154000FFF74EFB641C062CB9D3BDE8F88F10B52D
:10155000FFF7AAFFD948D849002341606FF07F41C7
:101560000160D7A2F1215420FFF77AFE0023F12178
:10157000BDE81040D4A2A420FFF772BE70B50446A7
:10158000FFF792FFCD48CC49D14D41606FF07F41CC
:101590005426016094B1002404EB440005EB4002A2
:1015A00004EB840006EB00100023F1211E32FFF74C
:1015B00057FE641CE4B2052CEED370BD04EB44006E
:1015C00005EB400204EB840006EB00100023F12140
:1015D000FFF746FE641CE4B2052CEFD370BD10B5D6
:1015E000FFF762FFB548B4494FF0000341606FF068
:1015F0007F410160B74890F8D40008B1B6A200E07E
:10160000B8A2F121BDE810405420FFF729BE10B563
:10161000FFF74AFFA948A849002341606FF07F41C6
:101620000160F121BDE81040B0A25420FFF718BEC0
:1016300010B50446FFF738FFA0499F48A54A6FF050
:101640007F438CB1C1E9003092F8D400012C71D0F5
:1016500000284FF000036CD0A5A2F2215320FFF721
:10166000FFFD0023A4A2ABE0C1E9003092F8D40052
:101670004FF4A27400284FF000032BD0A0A2E72162
:101680005420FFF7EDFD00239FA2FB215420FFF71C
:10169000E7FD00239AA2E721A420FFF7E1FD002344
:1016A0009BA2FB21A420FFF7DBFD00239AA2E721E8
:1016B000F420FFF7D5FD002395A2FB21F420FFF7CE
:1016C000CFFD002394A2E7212046FFF7C9FD0023A8
:1016D00092A22AE093A2E7215420FFF7C1FD002344
:1016E00092A2FB215420FFF7BBFD00238DA2E7212E
:1016F000A420FFF7B5FD00238EA2FB21A420FFF755
:10170000AFFD00238DA2E721F420FFF7A9FD002300
:1017100088A2FB21F420FFF7A3FD002387A2E72185
:101720002046FFF79DFD002386A2FB21204649E0CD
:1017300000E03EE04FF4CA744FF00003C8B183A24A
:10174000E7215420FFF78CFD002382A2FB215420C7
:10175000FFF786FD002381A2E721A420FFF780FD8B
:10176000002380A2FB21A420FFF77AFD00237FA2A3
:1017700018E080A2E7215420FFF772FD00237FA22A
:10178000FB215420FFF76CFD00237EA2E721A4205B
:10179000FFF766FD00237DA2FB21A420FFF760FD7B
:1017A00000237CA2E7212046FFF75AFD00237BA2FD
:1017B000BBE77CA2F2215320FFF752FD00237BA25E
:1017C000F221A320BDE81040FFF74ABD70B5FFF736
:1017D0006BFE3A486FF07F414FF4A27401603649C6
:1017E00041603C484FF4CA754FF0000390F8D400B4
:1017F00098B170A2E7215420FFF732FD00236FA2B9
:10180000FB215420FFF72CFD00236EA2F12120467E
:10181000FFF726FD00236DA212E06EA2E7215420FF
:10182000FFF71EFD00236DA2FB215420FFF718FDDA
:1018300000236CA2F1212046FFF712FD00236BA2CA
:101840002846BDE87040F121FFF70ABD70B5044697
:10185000FFF72AFE194918481E4A6FF07F434FF4DC
:10186000A2754FF4CA761CB3012C21D0C1E9003017
:1018700092F8D4004FF0000300281AD05DA2F121A5
:101880005420FFF7EDFC00235DA2E721A420FFF721
:10189000E7FC00235CA2FB215FF0A400FFF7E0FC63
:1018A000002348A2F1212846FFF7DAFC0023AFE02D
:1018B000B1E0F1E068436900380031001400001025
:1018C000206DA6B82020000020A6B820000000004F
:1018D00090480100340B001020436F6E6669726DF2
:1018E0002000000020C8B7C8CF2000002A31000027
:1018F00043616E63656C0000436F6E6669726D00D4
:101900004D45415300000000444953500000000081
:10191000534554555000000053595300494E464F0B
:1019200000000000B2E2C1BF00000000CFD4CABE78
:1019300000000000C9E8D6C300000000CFB5CDB359
:1019400000000000D0C5CFA20000000046696C6511
:10195000730000004D616E6167650000536176653C
:101960000000000044617461000000004D6F72656A
:1019700000000000CEC4BCFE00000000B9DCC0EDD9
:1019800000000000B1A3B4E600000000CAFDBEDD07
:1019900000000000B8FCB6E00000000020322F324A
:1019A000000000002020C8A1CFFB20002020C8B7E5
:1019B000C8CF200044656C65746500005461626C9A
:1019C0006500000050524556000000004E45585436
:1019D00000000000C7E5B3FD00000000B1EDB8F164
:1019E00000000000C9CFD2BBD2B30000CFC2D2BB2F
:1019F000D2B3000044656C2D4C696E650000000098
:101A00004175746F00000000436F707900000000A2
:101A1000AFF248025BE0C1E9003092F8D4004FF029
:101A20000003E8B1AFF23402F1215420FFF718FCB3
:101A30000023FBA2E721A420FFF712FC0023AFF252
:101A40004002FB21A420FFF70BFC0023F6A2E721B4
:101A5000F420FFF705FC0023FB21F6A2F4201DE78C
:101A6000F6A2F1215420FFF7FBFB0023F5A2E721AA
:101A7000A420FFF7F5FB0023F4A2FB21A420FFF72D
:101A8000EFFB0023F3A2E721F420FFF7E9FB00239B
:101A9000FB21EEA2F4200EE0E8A2F1215420FFF792
:101AA000DFFB0023E9A2E721A420FFF7D9FB0023F5
:101AB000EAA2FB21A420FFF7D3FB0023AFF2DC0254
:101AC000F1212846FFF7CCFB0023AFF2E0023046BD
:101AD000BDE87040F121FFF7C3BB10B5FFF7E4FC90
:101AE000E0486FF07F4100230160DF49AFF2C4128C
:101AF0004160E7215420FFF7B3FB0023DBA2FB2169
:101B00005420FFF7ADFB0023DAA2E721A420FFF762
:101B1000A7FB0023D5A2FB21A420FFF7A1FB0023F4
:101B2000D4A2E721F420FFF79BFB0023FB21BDE8B3
:101B30001040D2A2F420FFF793BBCA4810B56FF053
:101B40007F410160C8494160CE484FF4A2744FF014
:101B5000000390F8D400002833D0AFF25C22E721D4
:101B60005420FFF77DFB0023AFF26422FB215420B9
:101B7000FFF776FB0023AFF27822E721A420FFF7DE
:101B80006FFB0023AFF27822FB21A420FFF768FB54
:101B90000023AFF27C22E721F420FFF761FB002352
:101BA000AFF29422FB21F420FFF75AFB0023AFF29F
:101BB0009822E7212046FFF753FB0023AFF2A4222F
:101BC00032E0AFF2A022E7215420FFF749FB0023C7
:101BD000AFF2A822FB215420FFF742FB0023AFF213
:101BE000BC22E721A420FFF73BFB0023AFF2BC227D
:101BF000FB21A420FFF734FB0023AFF2C022E72132
:101C0000F420FFF72DFB0023AFF2D822FB21F420B4
:101C1000FFF726FB0023AFF2DC22E7212046FFF787
:101C20001FFB0023AFF2E4222046BDE81040FB2159
:101C3000FFF716BB08B59448002100901623F02248
:101C40000846FEF79EFF08BD08B590480090CA23DD
:101C500040F2DF125C210020FEF793FF08BD10B5B3
:101C6000FFF7E8FFFFF720FCBDE81040ECE770B598
:101C70007C484FF05011002441604FF47F41844D67
:101C80001A26016004EBC400421904EB440000EB87
:101C9000C40006EB400100231846FFF7E1FA641C7C
:101CA000E4B2032CEED300237AA219461846FFF7BC
:101CB000D7FA00237AA21A211620FFF7D1FA0023BF
:101CC0007FA230211620FFF7CBFABDE87040002339
:101CD000462188A21620FFF7C3BA2DE9F047FFF787
:101CE000BEFF604C68486FF07F46664DC4E90060F7
:101CF00095F8D4004FF0000308B18C4A01E08B4AFC
:101D0000F23A04210020FFF7ABFA4FF05010C4E97B
:101D100000605F4F00248D374FF01A09A7F13C088F
:101D20006FF0270601E0032C1DD295F8D40020B1F6
:101D300004EB840007EB400203E004EB840108EBB2
:101D4000410204EB440000EBC40109EB410081B205
:101D500000231846FFF784FA641C062CE3D3BDE881
:101D6000F047002064E495F8D40020B104EB84002F
:101D700007EB400203E004EB840108EB410204EBB3
:101D8000440000EBC40006EB400081B20023FA20BF
:101D9000E0E708B53D480090BE2340F2DF12702115
:101DA0000020FEF7EEFE08BD10B5FFF743FFFFF77A
:101DB0007BFBBDE81040ECE738B52A4D04464FF0F8
:101DC000501068605A48012300EB8402C821142097
:101DD000FFF746FA564801235C3000EB8402C82125
:101DE0004FF48C70FFF73CFA284868605148009027
:101DF000372328227A215020FFF7AAF84E48009076
:101E0000372328227A217820FFF7A2F84B48009048
:101E1000372328227A218C20FFF79AF838BD00005A
:101E20004C696E65617200004C6F6761726974681D
:101E30006D0000004179746F00000000C9BEB3FD61
:101E4000D0D00000CFDFD0D400000000D7D4B6AF90
:101E500000000000B6D4CAFD00000000B8B4D6C629
:101E6000000000001400001038003100C9FDBCB6AD
:101E700000000000B2C9BCAF00000000424F4F5448
:101E800000000000340B0010F352030034346500EE
:101E9000723A0100C9FDBCB6CBB5C3F70000000023
:101EA000B2E5C8EB55C5CC2CB2A2B0B4CFC2D3D2E8
:101EB000CFC2BDC7B5C455C5CCC1ACBDD3BCFC00F9
:101EC000C8F4B1EACAB6B1E4B3C9C2CCC9ABD4F262
:101ED000CBB5C3F7C1ACBDD3B3C9B9A62CD4D9B067
:101EE000B4CFC2B6D4D3A6BCFCBFAACABCC9FDBC81
:101EF000B6000000C9FDBCB6CDEAB3C9BAF3BBE178
:101F0000D7D4B6AFCCF8D7AAD6F7B3CCD0F22CC87A
:101F1000F4BADAC6C1C7EBB6CFBFAAB5E7D4B4BA34
:101F2000F3D4D9C9CFB5E7D6D8C6F40086450100A9
:101F3000AF3C0100292301006C3501007F36010010
:101F40002DE9F047FFF730FFFE4CFF486FF07F466A
:101F5000FE4DC4E9006095F8D4004FF0000308B1CD
:101F6000FB4A01E0FA4AF23A042100201632FFF758
:101F700077F94FF05010C4E90060F64F00244FF09D
:101F80001A09A7F138086FF0270601E0032C20D2C8
:101F900095F8D40010B107EBC40201E008EBC402CD
:101FA00004EB440000EBC40109EB410081B20023C3
:101FB0004FEA0300FFF754F9641C072CE6D3E64808
:101FC00090F8B803FFF7F8FEBDE8F0470020FFF7F0
:101FD0002FBB95F8D40010B107EBC40201E008EB69
:101FE000C40204EB440000EBC40006EB400081B2E5
:101FF0000023FA20DEE738B5D84C40F2DF15A023E5
:102000002A46562100200094FEF7BBFDE3232A4612
:10201000C12100200094FEF7B4FDFFE610B5FFF7E4
:1020200009FEFFF741FABDE81040E4E70B46CC4952
:1020300030B4085C183100EB4000441891B22246DD
:1020400098B230BC0023FFF70BB92DE9F047FFF73A
:10205000E5FFBC4DBC486FF07F44BC4EC5E9004075
:1020600096F8D4004FF0000308B1B94A01E0B84A2D
:10207000F23A042100202C32FFF7F2F84FF0501909
:10208000C5E90049DFF8C882002408F1F2084FF6DC
:10209000FF7708F1150A00BF96F8D400C4EBC4011D
:1020A00010B101EB080201E001EB0A0204EB84002D
:1020B00007EA401000231A21FFF7D2F8641C032C12
:1020C000EAD3A54E0123D6F8C00300EB400101EB93
:1020D000C000A44942181A213C20FFF7C1F896F825
:1020E0000C1100230622D6F80801FFF753F901234B
:1020F0009D4A1A21DC20FFF7B3F8D6F81001984961
:1021000000EB40001539421801231A214FF4917059
:10211000FFF7A6F81A224FF49671D6F8B803FFF726
:1021200085FF002391A22E211846FFF7E9F800232E
:102130008FA22E217820FFF7E3F800238EA22E2114
:10214000F020FFF7DDF800238DA22E214FF4C87098
:10215000FFF7D6F80624DFF804824F460AE000BFF6
:10216000A4F10800052802D3A01F082802D9C5F849
:10217000048000E06F60C4EBC40006EBC00151F8BE
:10218000200C60B111F81C1C01230622FFF702F994
:10219000C4EB0410203881B20123734A05E0C4EB7C
:1021A0000410203881B2012377A27820FFF7A8F825
:1021B000641C0F2CD4D3C5F80480D6F8440340B176
:1021C00096F8481301230622FFF7E4F80123664A34
:1021D00001E001236CA2C4217820FFF791F81024BC
:1021E0000AE000BFA4F11200052802D3801C0828D1
:1021F00002D9C5F8048000E06F60C4EBC40006EBB0
:10220000C001A1F58051D1F8CC0D60B191F8D01D7D
:1022100001230622FFF7BEF8C4EB0410B63881B2E2
:102220000123514A05E0C4EB0410B63881B2012302
:1022300055A2FA20FFF764F8641C192CD2D3C5F814
:102240000480D6F8440350B196F82C1301230622DB
:10225000D6F82803FFF79EF80123434A01E0012343
:1022600049A2C421FA20FFF74BF84646B84601249C
:10227000474F04E0E01E052801D26E6001E0C5F87A
:10228000048004EBC400C219C4EB04102B3081B2EB
:1022900000230820093AFFF733F8641C0A2CE9D31D
:1022A00000233CA2C42118466E60FFF729F80023E2
:1022B00039A2D4211846FFF723F8002338A2D421ED
:1022C000F020FFF71DF8BDE8F0470020FFF7B0B998
:1022D00008B522480090A02340F2DF1260210020C0
:1022E000FEF74FFC08BD10B5FFF7A4FCFFF7DCF8C4
:1022F000BDE81040ECE770B5FFF7F5FF114C124850
:102300006FF07F45114EC4E9005096F8D4004FF0AD
:10231000000308B10E4A01E00D4AF23A0421002000
:102320004232FEF79DFF4FF05010C4E9005096F87E
:10233000D4004FF00003D8B31BA21A210020FEF7EF
:102340008FFF36E014000010F3520300340B00102E
:1023500086450100F4400100340C0010343465005F
:10236000E1480100833D0100684F001042494E00E2
:102370004C4F57205B465D00484947485B465D002F
:10238000434F554E540000002D2D2D2D2D2D0000B6
:10239000723A0100326E64004155583A0000000064
:1023A0004F55543A000000004D6F64653A0000003C
:1023B00008E00023FDA230212820FEF751FF002372
:1023C000FDA20CE0FEA21A210020FEF749FF002327
:1023D000FDA230212820FEF743FF0023FDA230217B
:1023E0008C20FEF73DFF0023FCA23021F020FEF7F9
:1023F00037FF0023FBA230214FF4AA70FEF730FF15
:102400000023FAA230214FF4DC70FEF729FFBDE86B
:1024100070400020FFF70CB908B5F54800909A23EA
:1024200040F2DF125A210020FEF7ABFB08BD10B5C9
:10243000FFF700FCFFF738F8BDE81040ECE72DE9A6
:10244000F05FFFF7F4FFEB4DEB486FF07F44EB4E8E
:10245000C5E9004096F8D4004FF0000308B1E84AFF
:1024600001E0E74AF23A042100205832FEF7F8FE74
:102470004FF05010C5E90040DFF8889300241A2778
:10248000DFF86CB3A9F1B40A804607E0092C25D225
:10249000E01E032802D2C5F804B001E0C5F80480AC
:1024A00096F8D40004EB840110B109EB410201E07D
:1024B0000AEB410204EB440000EBC40007EB4000D0
:1024C00081B200234FEA0300FEF7CAFE641C122CFF
:1024D000DCD3BDE8F05F0020FFF7FFBAA4F10C00E9
:1024E000032802D2C5F804B001E0C5F8048096F8CC
:1024F000D40004EB840110B109EB410201E00AEBC6
:10250000410204EB440000EBC4016FF0AB0000EBB0
:10251000410081B20023FA20D6E72DE9F843B54DFA
:10252000B94C4FF050190746C5F80490D4F8B803D9
:10253000012300EBC001B5480A181A215820FEF704
:102540008FFED4F8C003012300EB400101EBC00073
:10255000AF49421830215820FEF782FED4F8C40358
:10256000012300EB400101EBC000AA4942184621BB
:102570005820FEF775FEA1484FF4A97690F8D400D4
:1025800010B1D4F81804E0B3D4F8180400EB4001FB
:1025900001EBC0009F492131421800231A21304627
:1025A000FEF75EFED4F82004012300EB400101EBAE
:1025B000C0009849B0467331421846213046FEF7B4
:1025C0004FFED4F81C04934E00EB400101EBC00019
:1025D00094368219012330214046FEF741FE3878B7
:1025E000012825D04846686000906E234FF4DD72C4
:1025F0005A214046FEF7C5FAD4F8280100EB400105
:1026000000E011E001EBC000821901235C2140468B
:10261000FEF726FEFEF748FF387801280AD0BDE80D
:10262000F8430020FFF704B80023AFF62C42B5E7CB
:10263000FF20D8E76FF07F4028607748002468606B
:102640005FF0540504EB440000EBC400821904EB76
:10265000840005EB001080B20023F121FEF700FE9C
:10266000641C022CEED3BDE8F883F8B5614C054636
:102670004FF0501060602878012801D0606801E0B8
:10268000FF2060604FF4BE7700902A234FF4D7728A
:102690001A213846FEF775FA5B485E4E0123D0F8E2
:1026A0005C03943600EB400101EBC00082191A2153
:1026B0003846FEF7D5FDFEF7F7FE2878012804D04E
:1026C000BDE8F8400020FEF7B3BF6FF07F40206008
:1026D000514860600024542504EB440000EBC40022
:1026E000821904EB840005EB001080B20023F12175
:1026F000FEF7B6FD641C022CEED3F8BD2DE9F05FA9
:102700000124DFF8EC90DFF8EC803F4D4FF4AD7B17
:102710004FF0501A3326E71E042F02D2C8F8049057
:1027200001E0C8F804A095F87D0400EB800004EBFC
:10273000400000EB800005EB8001D1F81806421C38
:102740007AD091F81C1601230522FEF723FE334AA6
:1027500006EB04110023F620FEF7D2FD95F87D0468
:1027600000EB800004EB400000EB800005EB8001F3
:1027700001F58051D1F88006421C62D091F8841690
:1027800001230522FEF706FE244A06EB041100236E
:102790005846FEF7B5FD95F87D0400EB800004EB8C
:1027A0004000284400F500503AE045E0467265716B
:1027B0005B487A5D000000004C45565B565D0000AA
:1027C000B7BDCABD203A0000C6B5C2CA5B487A5D33
:1027D00000000000B5E7C6BD5B565D0043705B4678
:1027E0005D000000445B205D00000000434D500090
:1027F0003434650014000010F3520300340B001051
:1028000086450100E0410100340C0010D73B010077
:10281000833D0100E23F010038003100684F0010A5
:1028200090F8F306FF2811D006EB04114FF00003D7
:1028300088B1AFF620720FE006EB04110023FEA270
:1028400089E706EB04110023FBA2A1E706EB0411C4
:102850000023FBA200E0FBA24FF4DF70FEF750FD67
:10286000042F02D2C8F8049001E0C8F804A095F83B
:102870007D0400EB800004EB4000284490F87D04C8
:102880001E2804D906EB04110023EBA208E000EB9C
:10289000400101EBC000EC49421806EB0411002393
:1028A0002620FEF72DFD95F87D0400EB800004EB5B
:1028B0004000284490F84F05022804D906EB041183
:1028C0000023DDA208E000EB400101EBC000DF497E
:1028D000421806EB041100239220FEF711FD95F833
:1028E0007D04012300EB800004EB40000322002163
:1028F000FEF750FD06EB04110023D54A0820FEF731
:10290000FFFC641CE4B20B2CFFF405AFBDE8F09FA4
:102910002DE9F84F0546007802280CD002D9A87896
:10292000FEF794FF2878CB4C4FF0FF0B4FF0501779
:10293000012803D004E0FEF749FFF3E7A878C8B107
:102940003846676000902A235E221A213620FEF75F
:1029500018F9DFF80483C1490023D8F8840300EB99
:10296000C00042181A213620FEF77AFC2878022887
:1029700004D006E05846C4F804B0E3E7A87800287D
:102980007DD038466760009042231E22322100200D
:10299000FEF7F7F80023B2A232211846FEF760FCDA
:1029A000C2460326A146B8462878B04202D1A8788C
:1029B000022865D0C9F80480D9F8040000902320CB
:1029C00000EB0613132000EB06111F460C464FF4D4
:1029D0009972FA20FEF7D5F8E87800EB800006EB54
:1029E000400000EB80010AEB8101D1F8F005421CA8
:1029F0007DD091F8F41501230522FEF7CBFC944A13
:102A000021460023FA20FEF77BFC2878B04202D151
:102A1000A87803286CD0C9F8048000BFD9F8040056
:102A200000903B4621464FF4C1724FF4A570FEF76B
:102A3000A8F8E87800EB800006EB400000EB80018E
:102A40000AEB810101F58051D1F85806421C6AD089
:102A500091F85C1601230522FEF79CFC7C4A214676
:102A6000002300BF4FF4A570FEF74AFC2878B0425F
:102A700002D1A87804285BD0C9F8048001E044E0C2
:102A800047E0D9F8040000903B46214640F2DF12AF
:102A90004FF4D270FEF775F8E8784FF0000300EBC2
:102AA000800006EB400101EB0A0000F500502146D2
:102AB00090F8F106FF283ED06AA200BF4FF4D27012
:102AC000FEF71EFC2878B04201D1A87878B3C9F887
:102AD000048000BFD9F8040000903B4621467E22C6
:102AE0002820FEF74EF8E87800EB800001E013E0C4
:102AF00016E006EB400101EB0A0090F87B04302859
:102B00001ED9214600234CA222E05846C4F804B046
:102B100039E7C9F804B04FE72146002346A271E720
:102B2000C9F804B07AE72146002343A29AE704E0FB
:102B3000C9F804B0A2E740A2C0E7C9F804B0C9E7E9
:102B400000EB400101EBC0003F4942182146002341
:102B50002820FEF7D5FB2878B04202D1A8780128BA
:102B60001AD0C9F8048000BFD9F8040000903B4691
:102B70002146C4227E20FEF704F8E87800EB8000AE
:102B800006EB400101EB0A0090F84D05022806D93A
:102B90002146002328A20AE0C9F804B0E4E700EBCC
:102BA000400101EBC00029494218214600237E2044
:102BB000FEF7A6FBC9F80480E878012300EB80004B
:102BC00006EB400003220021801EFEF7E3FB2146B6
:102BD00000231F4A0820FEF793FB761CF6B20D2E49
:102BE000FFF4E2AEBDE8F88F2DE9F843194C4FF041
:102BF00050170546676000784FF0FF08012801D0A4
:102C0000384602E04046C4F8048000902A23582247
:102C10001A213020FDF7B5FF0F480C4E012390F824
:102C20007C04AA3600EB800082191A213020FEF7BE
:102C300017FB2878022817E02D2D2D2D000000000D
:102C40002D00000046000000833D0100E23F01002E
:102C5000684F001014000010340C0010D73B010026
:102C60004E6F2E00500000001ED038466760009066
:102C700040231E2230210820FDF783FF0123AFF2FD
:102C8000200230210820FEF7EBFAFEF70DFC2A782F
:102C9000FB486FF07F41012A0AD0022A1AD06878D7
:102CA000BDE8F843FEF7C4BC4046C4F80480DEE744
:102CB000C4E900100024542504EB8400821905EBBC
:102CC000001080B20023F121FEF7CAFA641C022C26
:102CD000F2D3C8E4C4E90010EB4FEA4E00244FF4ED
:102CE000A275A7F10E0800BF96F8D40018B1C4EB86
:102CF000C400C21903E0C4EBC40101EB080204EBF9
:102D0000840005EB001080B20023F121FEF7A8FA41
:102D1000641C022CE8D3A6E42DE9F84F05460078A0
:102D2000FF26DA4C4FF05017012819D06760606811
:102D300000902C23C02218215820FDF722FFDFF835
:102D40004483DFF84C9398F8D400A9F10E0A0028C8
:102D500098F80000C0EBC00104D001EB090203E0C9
:102D60006660E4E701EB0A0200231A215820FEF70F
:102D700077FA2878022816D0C4F8047098F86810FA
:102D800000230422D8F86400FEF704FB0023C14AA4
:102D900030215820FEF764FAD8F86C004FF0000399
:102DA00018B1BDA202E06660E8E7BCA230218A202B
:102DB000FEF756FA2878032815D0676098F80C10AB
:102DC00000230422D8F80800FEF7E4FA0023B14AF1
:102DD00046215820FEF744FAD8F810004FF00003BF
:102DE00018B1ADA202E06660E8E7ACA246218A20F5
:102DF000FEF736FA287804286CD0676060684FF4D4
:102E0000A97B00902C234FF4DD7218215846FDF762
:102E1000B8FE98F8D40010B198F84000F0B398F8D4
:102E2000400000EB400101EBC0009749A139421876
:102E300000231A215846FEF713FA287805284ED0A9
:102E4000C4F8047098F8A01000230422D8F89C005D
:102E5000FEF7A0FA00238F4A30215846FEF700FA09
:102E600000238FA230214FF4C170FEF7F9F92878C2
:102E7000062836D06760464698F82C1000230422B6
:102E8000D8F82800FEF786FA0023824A46215846E1
:102E9000FEF7E6F9002382A2462100E01CE04FF491
:102EA000C170FEF7DDF9FEF7FFFA2878D8B10128E6
:102EB0002DD16FF07F40206071486060002457463C
:102EC0005FF0540596F8D40090B1C4EBC40101EB57
:102ED000090210E0666091E70023724AA9E7666084
:102EE000B0E76660C7E7BDE8F84F0020FEF7A0BB7B
:102EF000C4EBC400C21904EB840005EB001080B2DF
:102F00000023F121FEF7ACF9641C022CDAD369E648
:102F10002DE9F84F05460078FF265C4C4FF050171E
:102F2000012814D06760606800902C23C02218210B
:102F30005820FDF726FEDFF84C8198F8D4000028D1
:102F400098F80000C0EBC00103D0514803E0666070
:102F5000E9E74F480E380A1800231A215820FEF7D7
:102F60007FF92878022813D06760606800904223B8
:102F7000C0222E215820FDF704FE98F8D400002826
:102F800098F80100C0EBC00104D041481C3003E0B8
:102F90006660EAE73E480E300A18002330215820C8
:102FA000FEF75EF92878032813D067606068009008
:102FB0006E23C02244215820FDF7E3FD98F8D40089
:102FC000002898F8B500C0EBC00104D030485B3051
:102FD00003E06660EAE72E4846300A1800234621DF
:102FE0005820FEF73DF9287804281BD02E48606051
:102FF00060680090A2466E23C0225A215820FDF737
:10300000C0FD98F8D4004446DFF884800028A078FA
:1030100008F13808A8F10E09C0EBC00104D001EB9B
:10302000080203E06660E3E701EB090200235C218C
:103030005820FEF715F92878052837D01A48CAF81D
:103040000400A346217B00230422A068FEF7A2F916
:10305000DAF80400009054468423C02270215820DE
:10306000FDF78FFD00230B4A72215820FEF7F8F878
:10307000DBF810004FF00003D8B107A21BE00000FE
:1030800038003100340B0010A4400100140000107F
:10309000673B0100684F001020A6B8006DA6B8007D
:1030A00020560000001A000034346500CAF804609D
:1030B000C7E7AFF2180272218A20FEF7D1F828780C
:1030C000062815D0676060680090A246B023C02231
:1030D0009C215820FDF755FD9BF8D4005C46002844
:1030E0009BF82000C0EBC00104D001EB080203E014
:1030F0006660E8E701EB090200239E215820FEF7F5
:10310000AFF82878072860D0CAF80470A34694F86E
:103110002C1000230422A06AFEF73CF9DAF8040020
:1031200000905446C623C022B2215820FDF729FD45
:103130000023F94AB4215820FEF792F80023AFF299
:10314000A002B4218820FEF78BF8287808283FD009
:103150006760606800902C234FF4DD7218214FF4F3
:10316000A970FDF70EFD9BF8D400DA4610B19AF86D
:10317000400078B39AF8400000EB400101EBC00139
:10318000E6480A1800231A214FF4A970FEF768F8E0
:103190002878092822D0676060680090A3464223FF
:1031A0004FF4DD722E214FF4A970FDF7EAFC9AF876
:1031B000D400544600289AF8410011D000EB400199
:1031C000D648A13800EB81020FE0CAF804609DE701
:1031D0006660BEE7FFE70023D14AD4E76660DBE71D
:1031E000C0EBC001CD48BD380A18002330214FF490
:1031F000A970FEF735F828780A2825D0C948CBF8F9
:103200000400A24694F84C1000230422A06CFEF7A0
:10321000C1F8DBF804005C464FF4A97B00906E23F4
:103220004FF4DD725A215846FDF7ABFC0023BA4A31
:103230005C215846FEF714F8DAF850004FF000030E
:1032400028B1AFF2AC1204E0CBF80460D9E7AFF2DA
:10325000B4125C214FF4C270FEF702F828780B28F4
:1032600021D0B048C4F804009AF868100023042262
:10327000DAF86400FEF78EF86068009084234FF45B
:10328000DD7270215846FDF77CFC0023A24A7221B2
:103290005846FDF7E5FFDAF86C004FF0000320B167
:1032A000AFF20C2203E06660DEE7AFF2102272217B
:1032B0004FF4C270FDF7D4FF28780C2854D0676013
:1032C0009AF8841000230422DAF88000FEF762F8EE
:1032D00060680090B0234FF4DD729C215846FDF7E2
:1032E00050FC00238C4A9E215846FDF7B9FF00236D
:1032F000AFF254229E214FF4C170FDF7B1FF287840
:103300000D2833D0676056469AF8A0100023042297
:10331000DAF89C00FEF73EF860680090C6234FF490
:10332000DD72B2215F465846FDF72BFC00237A4A36
:10333000B4213846FDF794FF0023AFF29C22B4215C
:103340004FF4C170FDF78CFFFEF7AEF82A7876498E
:1033500054256FF07F400A2A2DD2DFE802F0090ED3
:103360002D4F712C8D2CA9CB6660A9E76660CAE74A
:10337000BDE8F84F0020FEF7B0BBDFF8B081C4E92C
:1033800000010024A8F10E0796F8D40020B1C4EB88
:10339000C40101EB080202E0C4EBC400C21904EB53
:1033A000840005EB001080B20023F121FDF758FFE7
:1033B000641C022CE8D315E4DFF87081C4E9000135
:1033C00008F11C080024A8F10E0700BF96F8D400ED
:1033D00020B1C4EBC40101EB080202E0C4EBC4005D
:1033E000C21904EB840005EB001080B20023F12128
:1033F000FDF736FF641C022CE8D388E5DFF82C814A
:10340000C4E9000108F15B080024A8F1150700BF1A
:1034100096F8D40020B1C4EBC40101EB080202E02D
:10342000C4EBC400C21904EB840005EB001080B2A9
:103430000023F121FDF714FF641C032CE8D366E59B
:10344000C4E9000100244F4696F8D40020B1C4EB33
:10345000C40101EB080202E0C4EBC400C21904EB92
:10346000840005EB001080B20023F121FDF7F8FE87
:10347000641C022CE8D34AE5C4E9000100244F464D
:1034800096F8D40020B1C4EBC40101EB080202E0BD
:10349000C4EBC400C21904EB840005EB001080B239
:1034A0000023F121FDF7DCFE641C022CE8D32EE59D
:1034B000C4E90001194F002496F8D40000B18CB182
:1034C00004EB440000EBC400C21904EB840005EBDC
:1034D000001080B20023F121FDF7C2FE641C052C10
:1034E000EAD314E5284600230D4AF121FDF7B8FE82
:1034F0000124E1E7C4E900015FF0000496F8B4009C
:10350000012896F8D40013D0F8B1044904EB440024
:10351000513901EB80021CE0684F001003400100AC
:10352000001A00003434650038003100673B0100A8
:1035300028B1FF4804EB440100EB810209E0FC489C
:10354000C4EBC4011C380A1803E0F948303000EB22
:10355000C40204EB840005EB001080B20023F121CB
:10356000FDF77EFE641C042CC8D3D0E430B40C46B6
:10357000F049134600EB40004218A0B299B230BCAB
:103580000123FDF7BDBE2DE9F84FEB4CEB4E4FF09C
:1035900050190546C4F80490D6F820014FF4B477CA
:1035A00000287DD00023E6A241213846FDF7A8FE81
:1035B0000023E3A24121C820FDF7A2FE2878FF27BF
:1035C00001286ED04846C4F8049000902C23702245
:1035D00018214620FDF7D5FAD6F8B803D94900EBF3
:1035E000C000421801231A214620FDF739FE287831
:1035F00002287CD0C4F8049096F80C110023052210
:10360000D6F80801FDF7C6FE606800902A234FF443
:1036100092721A21E220FDF7B4FA0123CA4A1A2154
:10362000E220FDF71DFED6F81001012300EB40015A
:10363000C0482D380A181A214FF48E70FDF710FE7D
:103640002878032869D04846C4F804904FF4C0781D
:1036500000902C234FF4E27218214046FDF791FAB6
:10366000BA48D6F82011012300EB81021A21404606
:10367000FDF7F6FD2878042852D04846C4F8049097
:103680000090422370222E214620FDF77AFAD6F8C8
:103690000001DFF8BC8200EB800101EB080201E0D1
:1036A00029E035E0002330214620FDF7D9FD2878B8
:1036B000052838D0C4F8049060680090A3464223DF
:1036C0004FF4AB722E21FA20FDF75BFAD6F82801F1
:1036D000012300EB80019E480A183021FA20FDF7F3
:1036E000BFFD0624B2462878A0421ED100E012E0B9
:1036F000CBF8047023E041223946D6F8B803FFF72F
:1037000035FF4122C821D6F8B803FFF72FFF55E750
:103710003846676059E767606EE73846676095E747
:1037200038466760ACE76760C6E7A4F10900042883
:1037300003D28848CBF8040001E0CBF80490DBF812
:103740000400C4EB04160090701C83B20E3EB1B2AC
:10375000DC229820FDF715FAC4EBC4010AEBC1087E
:1037600058F8200C78B318F81C1C00230522FDF72C
:1037700011FEB1B20123AFF638329820FDF7C0FD3B
:10378000B1B20123704AA020FDF7BAFDDAF820019A
:1037900060B958F8180C012300EB400165482D383A
:1037A0000A18B1B25FF0D000FDF7AAFD641C102C1E
:1037B00099D3D84610244FF4A07B2878A04208D192
:1037C000C8F804700FE0FFE70123B1B2624AA020FD
:1037D000EAE7A4F11300042803D25E48C8F8040005
:1037E00001E0C8F80490D8F80400C4EB0416009077
:1037F000A6F1910083B2A43EB1B24FF4BE72584616
:10380000FDF7BFF94D48C4EBC40100EBC101A1F5C0
:10381000805ADAF8CCCDBCF1000F2ED09AF8D01D2A
:10382000002305226046FDF7B5FDB1B20023464AEC
:103830005846FDF765FD4148D0F8200160B9DAF837
:10384000D40D012300EB40013A482D380A18B1B2DB
:103850004FF4B870FDF754FD641C1A2CADD3FDF77E
:1038600023FE2A783D4854266FF07F41062A47D22E
:10387000DFE802F00820200D2134B1B20123364ADE
:103880005846E7E76878BDE8F84FFEF726B9C8E97B
:1038900000102E4D002400BF04EB840006EB001046
:1038A00005EB840280B20023F121FDF7D9FC641CF2
:1038B000022CF1D37FE5C8E90010254D002400BF9C
:1038C00004EB8400421906EB001080B20023F121C2
:1038D000FDF7C6FC641C022CF2D36CE5C8E90010AD
:1038E0001B4D002404EB8400421906EB001080B24B
:1038F0000023F121FDF7B4FC641C022CF2D35AE53D
:1039000017484FF4CA744FF0000390F8D40070B118
:10391000144AF1215420FDF7A3FC002312A2E72151
:103920002046FDF79DFC0F4A0023383A2CE01DE0AD
:10393000623F0100F948010014000010340C00102F
:1039400025000000D73B0100684F00106A3A0100D3
:10395000B240010034346500882300003800310093
:10396000340B0010F419000044656C00FEA2F12134
:103970005420FDF775FC0023FD4AE7212046FDF7A2
:103980006FFCFB4A0023083201B02046BDE8F04F2F
:10399000FB21FDF765BC70B50446007800281DD0FA
:1039A0001A254FF4A076042805D908460BF00EFB23
:1039B00004F019FF04E010460BF008FB02F024F9B4
:1039C0002078012300EB400101EBC00005EB400132
:1039D0003046BDE87040E74AFDF742BC70BD2DE9B6
:1039E000F84FE54DDFF894B3074600244FF0501828
:1039F0004FF042094FF02E0A3978601C814201D104
:103A0000FF2000E040466860009004EB440000EBBB
:103A1000C40609EB460083B20AEB460081B2E822F5
:103A2000A020FDF7AEF8D6481BF8041000EB840088
:103A30000023B0F8B8000422FDF7ACFC302000EB06
:103A4000460081B20123CB4AA020FDF709FC641C8B
:103A5000062CD1D3C5F80480ADE42DE9F84F044617
:103A60000178FF27C4484FF05015012918D0456050
:103A70008146406800902C23C0221A215A20FDF76D
:103A800080F8DFF8FCA2BF4E9AF8D400A6F10E0829
:103A900000289AF8D00005D0C0EBC000821905E0DC
:103AA0004760E5E7C0EBC00101EB080200231C21E1
:103AB0005A20FDF7D5FB207802282ED0C9F80450F3
:103AC000D9F8040000904223C02230215A20FDF78B
:103AD00058F89AF8D1000023C0EBC001AA480A1890
:103AE00032215A20FDF7BCFB2078032818D0C9F8F2
:103AF000045000BFD9F8040000905823C02246218A
:103B00005A20FDF73EF89AF8D40000289AF8D2001F
:103B100009D0C0EBC000821909E0C9F80470CFE7F2
:103B2000C9F80470E6E7C0EBC00101EB080200230E
:103B300048215A20FDF794FB2078042815D0C9F8B5
:103B4000045000BFD9F8040000906E23C0225C210D
:103B50005A20FDF716F89AF8D40000289AF8D300F6
:103B600006D0C0EBC000821906E0C9F80470E9E78E
:103B7000C0EBC00101EB080200235E215A20FDF7D3
:103B80006FFB207805287DD0C9F80450D9F80400CF
:103B900000908423C02272215A20FCF7F2FF7A4859
:103BA0009AF8D410103800EBC102002374215A2077
:103BB000FDF756FB207806287ED0C9F8045000BFD8
:103BC000D9F8040000909A236C2288215A20FCF72F
:103BD000D8FF6E4801230222C0690021FDF7DAFBFD
:103BE0000023644A8A215A20FDF73AFBAB460023A2
:103BF000AFF6B4728A216E20C9F80450FDF730FB8D
:103C0000207807287ED0C9F804B0D9F804000090C5
:103C10004D469A238A2288217820FCF7B2FF5B4820
:103C20000123022280690021FDF7B4FB0023514AE1
:103C30008A217820FDF714FBD946002354A28A215B
:103C40008C20C5F804B0FDF70BFB207808287DD048
:103C50004846C5F8049000909A23AA22882198200B
:103C6000FCF78FFFDFF824B1012302220021DBF8EB
:103C70000C00FDF78FFB3F4900200A468870034681
:103C80008A2100E0ACE09820FDF7EAFA20780928C4
:103C900068D04846C5F804900090B0236C229E215D
:103CA0005A20FCF76EFF012302220021DBF80800F6
:103CB000FDF770FB002300E095E02E4AA0215A207A
:103CC000FDF7CEFA002333A2A0216E20C5F80490A0
:103CD000FDF7C6FA20780A2879D04846C5F804903E
:103CE0000090B0238A229E217820FCF74AFF01230E
:103CF00002220021DBF80400FDF74CFB00231D4AE3
:103D0000A02100E072E07820FDF7AAFA002321A2AA
:103D1000A0218C20C5F80490FDF7A2FA20780B288A
:103D200071D04846C5F804900090B023AA229E2185
:103D30009820FCF726FF012302220021DBF8000077
:103D4000FDF728FB0B490020887000E051E0034696
:103D50000A46A0219820FDF783FA20780C2855D038
:103D6000484619E048E00000C7E5B3FDD0D00000A8
:103D7000D4190000684F001014000010643A0100CC
:103D8000340B00109F3B010058480100184F0010F1
:103D90002D0000003A000000C5F804900090C623F2
:103DA000C022B4215A20FCF7ECFE0023FC4AB621C5
:103DB0005A20FDF755FAFDF777FB6FF07F4028603A
:103DC000F8486860207854240C2842D200E016E0BD
:103DD000DFE800F01F2340526E8A9D9D9D9D9D9DB2
:103DE000C9F80470D2E6C9F80470E9E6C9F80470AD
:103DF0000BE738466F602EE738466F604CE7384671
:103E00006F606DE7FFE738466F608DE738466F609B
:103E1000C4E7BDE8F84FFDF790BEB1460025574610
:103E20004FEA080697F8D40020B1C5EBC50101EBB5
:103E3000090202E0C5EBC500821905EB850004EB21
:103E4000001080B20023F121FDF70AFA6D1C022D4B
:103E5000E8D32FE5D44E0025C5EBC500821905EB4C
:103E6000850004EB001080B20023F121FDF7F8F982
:103E70006D1C052DF0D31DE5B1460025574646467D
:103E800097F8D40020B1C5EBC50101EB090202E0AF
:103E9000C5EBC500821905EB850004EB001080B26C
:103EA0000023F121FDF7DCF96D1C022DE8D301E5BB
:103EB000B14600255746464697F8D40020B1C5EBD9
:103EC000C50101EB090202E0C5EBC500821905EB53
:103ED000850004EB001080B20023F121FDF7C0F94A
:103EE0006D1C022DE8D3E5E4AF4E0025B6F11006B7
:103EF00005EB850004EB001006EBC50280B2002341
:103F0000F121FDF7ADF96D1C022DF1D3D2E4A74EDE
:103F1000002500BF05EB850004EB001006EBC50291
:103F200080B20023F121FDF79BF96D1C022DF1D326
:103F3000C0E410B5FDF77EFEBDE81040FDF7B4BA51
:103F40002DE9F041FFF7F5FF994C9A486FF07F4556
:103F5000934EC4E90050D53E4FF0000396F8D400CC
:103F600008B1954A01E0944AF23A042100206E32E9
:103F7000FDF776F94FF05010C4E900508F4F002440
:103F80004FF6FF75A7F1270896F8D400002804EB38
:103F9000840003D000EBC400C21903E000EBC401AD
:103FA00001EB080204EB840005EA401000231A210B
:103FB000FDF756F9641C032CE6D3804D0024273509
:103FC0005FF0300604EB840000EBC400421904EB00
:103FD000440000EBC40006EB400081B20023184609
:103FE000FDF73EF9641C062CECD3BDE8F08108B562
:103FF00073480090B62340F2DF127A210020FCF7CC
:10400000C0FD08BD10B5FDF715FEFDF74DFABDE882
:104010001040ECE72DE9F05FFFF7F4FF644C6548D2
:104020006FF07F465E4DC4E90060D53D4FF0000360
:1040300095F8D40008B1604A01E05F4AF23A0421E1
:1040400000208432FDF70CF94FF0501BC4E9006BDF
:10405000A1465A4F002475374FF6FF7A07F1300812
:10406000584E01E0032C19D295F8D40010B108EB9A
:10407000C40201E007EBC40204EB84010AEA411028
:1040800000231A21FDF7ECF8641C062CEAD3464EF7
:1040900000244B4F4D46D846BA3E14E095F8D40064
:1040A00010B107EBC40201E008EBC40204EB84008A
:1040B00006EB4010002380B23021E3E7201F0428E4
:1040C00001D26F6001E0C5F80480C4EB04104130F8
:1040D00081B2002306EB84021846FDF711F9641C37
:1040E0000B2CEBD3002338A24121A020FDF708F9C7
:1040F000002336A241214FF4A070FDF701F93548A5
:104100001A224FF49371D0F8B803FDF78FFFBDE882
:10411000F05F0020FDF7E1BC08B529480090B62308
:1041200040F2DF127A210020FCF72BFD08BD10B50C
:10413000FDF780FDBDE81040FDF7B6B92DE9F0416F
:10414000FFF7F5FF1A4C1B486FF07F46144DC4E98A
:104150000060D53D4FF0000395F8D40008B1164A31
:1041600001E0154AF23A042100209A32FDF778F86E
:104170004FF05010C4E900600B4A00238E3A1A2118
:104180001846FDF76DF8084E01244F3EA6F13F0793
:1041900095F8D400002804EBC4001DD082191CE05F
:1041A000090C00103800310058480100454001005A
:1041B00014000010F352030086450100C9460100B7
:1041C0003434650020FEFFFF4C4F570048494748F4
:1041D00000000000340C0010C2194D2104FB01F056
:1041E0002F3880B200233021FDF73AF8641C072CE9
:1041F000CED3BDE8F0410020FDF76FBCF8B5002438
:104200006FF07F465FF02E0504EB440000EBC40026
:1042100005EB400083B281B2BE225A200096FCF723
:10422000DFFC641C072CEFD3F8BD10B5FDF702FDD1
:10423000BDE81040FDF738B92DE9F041FFF7F5FF73
:10424000FB4CFC486FF07F46FB4DC4E9006095F8DD
:10425000D4004FF0000308B1F84A01E0F74AF23AFF
:1042600004210020DC32FCF7FBFF4FF05010C4E9C2
:10427000006095F8FF001A2601284FF000040ED0C8
:10428000DFF8BC83A8F1540795F8D4000028C4EBEC
:10429000C40026D000EB400101EB080224E0E84F07
:1042A000A83FA7F1540800BF95F8D4000028C4EB3C
:1042B000C40003D000EB4000C21903E000EB400152
:1042C00001EB080204EB440000EBC40006EB4000E5
:1042D00081B200231846FCF7C3FF641C042CE3D30F
:1042E00010E000EB4000C21904EB440000EBC400F6
:1042F00006EB400081B200231846FCF7B1FF641CB6
:10430000042CC1D3CC4A0023F5325C215A20FCF79F
:10431000A7FFBDE8F041FDF710BC2DE9F041FFF724
:1043200084FFC34CC3486FF07F46C34DC4E90060AF
:1043300095F8D4004FF0000308B1C04A01E0BF4A2D
:10434000F23A04210020B032FCF78AFF4FF05010FF
:10435000C4E90060BA4F0024AC371A26A7F1580808
:1043600095F8D400002804EB440000EBC40001D011
:10437000C21901E000EB080206EB400081B2002305
:104380001846FCF76DFF641C082CE9D3FFF736FFD5
:10439000BDE8F041FDF7D1BB2DE9F05F83460C4647
:1043A000486842F20F71884201D8A06805E00A21EE
:1043B000B0FBF1F060600420A060C0F10406A660CC
:1043C00060680AF057FE0546DFF878A2DFF87892B9
:1043D000E06810B1012802D006E0514600E04946ED
:1043E00028460AF08FFE054630460AF033F90246A9
:1043F0000B460020954909F065F906460F46284608
:104400000AF088FC32463B4609F088FF09F098FE26
:104410008F49012605464FF00208884203DD0D460C
:1044200040F6B83008E08B488B49854206DB2846C9
:104430000AF00AFD0AF0E6FDE66023E048464FF088
:104440000309854207DB514628460AF0FDFC0AF0C5
:10445000D9FDE6601DE081480027854209DB8049DF
:1044600028460AF0F1FC0AF0CDFD211D81E8C100CB
:1044700011E08D4209DB7B4928460AF0E5FC0AF091
:10448000C1FDE760C4E9010805E028460AF0BAFD6D
:10449000E760C4E9010928460AF0B4FDA06121469D
:1044A0005846BDE8F05F1C2207F08ABE808800B243
:1044B0007047F0B4D1E9023764256B4A0A264FF4FD
:1044C0007A7437B1062B4BD2DFE803F01D25462A5C
:1044D000363D052B40D2DFE803F0033F0C101400FB
:1044E0004B68934202D94A60002200E001220A612F
:1044F00032E04A68B2FBF4F22DE04A68B2FBF5F212
:1045000029E04A6809E04B68934224D84FF47A7254
:1045100053434B6020E04A68F2B1B2FBF6F21AE076
:104520004B6842F21072934201D81A4600E04A608A
:1045300002EB820252000EE04A68A24200D94C60AF
:1045400064234A6806E04A68642A00D94D604A68D4
:104550004FF47A735A434A60F0BC1C2207F030BE15
:10456000424AF8E72DE9F04781460C46486842F296
:104570000F714FF00A08884204D9B0FBF8F0606070
:104580000420A06066684FF47A704643A068C0F1CA
:1045900004000AF05FF802460B4600202B4909F0A0
:1045A00091F807460D4630460AF054F83A462B4635
:1045B00009F0B4FE0AF00AF84EF6602142F21072D9
:1045C000884201D9084601E0904205D30221A1604A
:1045D000B0FBF8F1616002E00321C4E90101A061D0
:1045E00021464846BDE8F0471C2207F0E9BD70B5FA
:1045F00005460020C8600C4688680AF03BFD0AF0BA
:1046000089FB02460B460020104909F05BF809F0CF
:10461000DDFF6168B1FBF0F0642801D90220A060E1
:1046200021462846BDE870401C2207F0C9BD0000A5
:1046300014000010F3520300340B001086450100F3
:104640009043010000007A44002474490000244093
:10465000C0E1E44B8096184B00401C460050C34715
:104660000000C84200002041A086010040420F0027
:1046700008B5FC480090372328225C213C20FCF739
:1046800067FCF9480090372328225C216420FCF75E
:104690005FFCF64800903723282293213C20FCF74A
:1046A00057FCF34800903723282293216420FCF71D
:1046B0004FFC08BD08B5EB480090372328225C2149
:1046C0003C20FCF745FCE8480090372328225C2179
:1046D0006420FCF73DFCE748009037232822932113
:1046E0003C20FCF735FCE248009037232822932138
:1046F0006420FCF72DFC08BD08B5DA48009037238C
:1047000028225C213C20FCF723FCD748009037236B
:1047100028225C216420FCF71BFCD748009037233B
:10472000282293213C20FCF713FCD148009037232A
:10473000282293216420FCF70BFC08BD38B5C9483A
:104740000090372328225C213C20FCF701FCC64C5A
:10475000372328225C2164200094FCF7F9FBC7482A
:1047600000903723282293213C20FCF7F1FB3723CC
:104770002822932164200094FCF7EAFB38BD38B569
:10478000B8480090372328225C213C20FCF7E0FB4E
:10479000BB4C372328225C2164200094FCF7D8FB13
:1047A000B64800903723282293213C20FCF7D0FB09
:1047B00037232822932164200094FCF7C9FB38BDDD
:1047C00008B5A8480090372328225C213C20FCF73C
:1047D000BFFBAB480090372328225C216420FCF704
:1047E000B7FBA24800903723282293213C20FCF7F6
:1047F000AFFB9F4800903723282293216420FCF7C9
:10480000A7FB08BD08B597480090372328225C21F4
:104810003C20FCF79DFB9A480090372328225C211E
:104820006420FCF795FB93480090372328229321BE
:104830003C20FCF78DFB8E480090372328229321E3
:104840006420FCF785FB08BD08B58E48009037232F
:1048500028225C213C20FCF77BFB83480090372317
:1048600028225C216420FCF773FB824800903723E8
:10487000282293213C20FCF76BFB7D4800903723D6
:10488000282293216420FCF763FB08BD38B57D48DE
:104890000090372328225C213C20FCF759FB724C06
:1048A000372328225C2164200094FCF751FB7348D5
:1048B00000903723282293213C20FCF749FB372323
:1048C0002822932164200094FCF742FB38BD08B5F0
:1048D0006C480090372328225C213C20FCF738FBF1
:1048E00061480090372328225C216420FCF730FBCC
:1048F000624800903723282293213C20FCF728FBB4
:10490000614800903723282293216420FCF720FB84
:1049100008BD08B55B480090372328225C213C2065
:10492000FCF716FB50480090372328225C216420B6
:10493000FCF70EFB4D4800903723282293213C20A2
:10494000FCF706FB4A480090372328229321642075
:10495000FCF7FEFA08BD08B54A4800903723282224
:104960005C213C20FCF7F4FA3F48009037232822D2
:104970005C216420FCF7ECFA3F48009037232822A2
:1049800093213C20FCF7E4FA394800903723282291
:1049900093216420FCF7DCFA08BD08B53948009083
:1049A000372328225C213C20FCF7D2FA34480090BF
:1049B000372328225C216420FCF7CAFA2B48009098
:1049C0003723282293213C20FCF7C2FA2848009084
:1049D0003723282293216420FCF7BAFA08BD08B5D2
:1049E00028480090372328225C213C20FCF7B0FAAD
:1049F00023480090372328225C216420FCF7A8FA82
:104A00001C4800903723282293213C20FCF7A0FA71
:104A1000174800903723282293216420FCF798FA46
:104A200008BD38B517480090372328225C213C2068
:104A3000FCF78EFA124C372328225C216420009464
:104A4000FCF786FA0D4800903723282293213C205A
:104A5000FCF77EFA37232822932164200094FCF788
:104A600077FA38BDF40D01000C0F01003C24010061
:104A7000463301004F2501001622010003210100E9
:104A8000CA1D0100B71C01006226010008B5F748E5
:104A90000090372328225C213C20FCF759FAF44887
:104AA0000090372328225C216420FCF751FAF1485A
:104AB00000903723282293213C20FCF749FAEE4846
:104AC00000903723282293216420FCF741FA08BD87
:104AD00038B5EA480090372328225C213C20FCF7B7
:104AE00037FAE74C372328225C2164200094FCF736
:104AF0002FFAE14800903723282293213C20FCF72D
:104B000027FA37232822932164200094FCF720FA07
:104B1000A7E738B5D9480090372328225C213C20EC
:104B2000FCF716FAD64C372328225C216420009427
:104B3000FCF70EFAA4F6D1300090372328229321F7
:104B40003C20FCF705FA37232822932164200094A7
:104B5000FCF7FEF985E738B5CA48009037232822CC
:104B60005C213C20FCF7F4F9C54C372328225C215A
:104B700064200094FCF7ECF9BF480090372328220A
:104B800093213C20FCF7E4F9372328229321642069
:104B90000094FCF7DDF964E738B5BA480090372394
:104BA00028225C213C20FCF7D3F9B54C372328227E
:104BB0005C2164200094FCF7CBF9A4F6D13000907E
:104BC0003723282293213C20FCF7C2F937232822DF
:104BD000932164200094FCF7BBF942E738B5AA4C56
:104BE0004FF4AA7594F8B51009B1022925D1A1484E
:104BF0000090372328225C213C20FCF7A9F9A34828
:104C00000090372328225C212846FCF7A1F9A04810
:104C100001784FF4967000299E4902D041F2A272A9
:104C200001E041F2432211440091372328225C2104
:104C3000FCF78EF994F8B50018B194F8B500012886
:104C40000ED1954C3723282293213C200094FCF769
:104C50007FF937232822932128460094FCF778F91E
:104C6000FFE608B58D4800903723282293213C2089
:104C7000FCF76EF97F480090372328225C213C2006
:104C8000FCF766F97A480090372328225C216420DB
:104C9000FCF75EF97A48009037232822932164209C
:104CA000FCF756F908BD08B5724800903723282252
:104CB0005C213C20FCF74CF97948009037232822EE
:104CC0005C216420FCF744F97448009037232822C3
:104CD00093213C20FCF73CF96948009037232822B7
:104CE00093216420FCF734F908BD08B56D480090A5
:104CF000372328225C213C20FCF72AF96A480090DF
:104D00003723282293213C20FCF722F908BD2DE906
:104D1000FF5F00201C4692464FF0010983F8020015
:104D200000F013FEFF28FBD160484FF0FF0B90F816
:104D3000B803A0705E480390C01D0290C01D019092
:104D400000E08FB35B4DDFF870816FF07F40C5E905
:104D500000080027FCF7A8FBC5F804B02C23C022EC
:104D600018215820CDF800B0FBF70BFFA0780123E5
:104D700000EBC00151480A181A215820FCF770FABC
:104D8000C5F8048000254FF0540800BF05EB8501ED
:104D900008EB01100AEBC5020023F121FCF760FAD1
:104DA0006D1CEDB2052DF1D300F0CFFD0546FF28B7
:104DB00003D0761C032E02D03EE000263CE0012703
:104DC00000F0DDFD0B2D49D00DDC032D4AD004DCB5
:104DD000012D38D0022D2FD174E0092D10D00A2DCD
:104DE0002AD1BDE8FF9F132D36D004DC112D15D03C
:104DF000122D21D168E0192D22D01B2D1CD163E08A
:104E00002B48E178C01F405CFF2802D0A0704FF013
:104E100000092648A178C0F8B8130BE0E1780398A0
:104E200013E02248A178C0F8B813E1780198085C33
:104E3000FF2801D084F802B0B9F1000F81D1D0E78A
:104E4000E178029801E0E1780198085CFF28E8D059
:104E5000A0704FF00009E4E7062100E005211848A2
:104E60000160BEE70A202070BBE70000B71C01000C
:104E7000CA1D01000321010062260100DD1E0100A0
:104E800046330100F01F0100340B001020310100F7
:104E90004D010010A41B0100A53801004F250100A1
:104EA0000C0F01001622010029230100340C001010
:104EB0006E3D01001400001038003100D73B0100A6
:104EC000600100100220CEE70020CCE72DE9F0477A
:104ED000F94E0546DFF8E4A396F8B500F84C89468C
:104EE000FF276FF07F4808B1022818D19AF8000018
:104EF000012802D196F8B40028B1012D06D02DB1B9
:104F0000042D03D003E0C4F8008000E02760ED4AE0
:104F10005C218420FCF779F996F8B50010B1C0B295
:104F2000012841D19AF8000018B196F8B400012880
:104F300005D1022D16D0032D14D0042D12D0C4F8A3
:104F40000080484603F04FFCDF48E04D00268078A3
:104F500050B1DFA293216420FCF757F900F025FB44
:104F60002E701CE02760ECE7B9F1000F0CD0012097
:104F700027602870D7A293216420FCF746F909F135
:104F8000C700C72806D908E02E70D1A2932164205B
:104F9000FCF73BF900F009FB01E000F0F9FAC94A1F
:104FA00093218420FCF731F94FF05010C4E90080C0
:104FB000BDE8F0470023D221C7A21E20FCF750B95C
:104FC00030B50C46C6A185B0D1E90021CDE901215B
:104FD000C5A2C74DD2E90012CDE9031201A93723BA
:104FE000085C40F2131148432844009028225C21B9
:104FF0004FF4BE70FBF7ACFF03A840F21311005D45
:10500000372300FB0150009028225C214FF4D2701E
:10501000FBF79EFF05B030BD30B50C46B0A185B0A2
:10502000D1E90021CDE90121AFA2B14DD2E90012B1
:10503000CDE9031201A93723085C40F2131148435C
:1050400028440090282293214FF4BE70FBF780FF84
:1050500003A840F21311005D372300FB01500090BC
:10506000282293214FF4D270FBF772FFD2E70EB5DE
:10507000A04A07CA8DE807008F48694690F84000AB
:105080008DF80200BF208DF803009B4804F0E3FB7D
:105090000EBD00B587B0142101A807F0C3F89748EA
:1050A0000068009060208DF804009548D0F8B8138F
:1050B00001EB410293498B5C8DF80530702311445C
:1050C0008DF806304A788DF8072071228DF8082077
:1050D00089788DF80910802190228DF80A108DF8BA
:1050E0000C2090F8C4238DF80D20A0228DF80E20FE
:1050F00090F820248DF80F20B0228DF8102090F821
:1051000018248DF81120C0228DF8122090F8242444
:105110008DF81320E0228DF8142090F8D0038DF83C
:105120000B008DF81510BF208DF8160000208DF8AB
:1051300017006946704804F08EFB07B000BD0EB53D
:105140006C4A0C3207CA8DE8070069466A4804F0C9
:1051500082FB0EBD01466C4804F07DBB00B585B0F6
:1051600000206649019002900390049049680091E4
:1051700010218DF801100D218DF802106349097876
:105180008DF80310BF218DF80A108DF804008DF8FA
:105190000B006946584804F05EFB05B000BD10B531
:1051A0000C46544900EB4000703942180123C821D5
:1051B0008020FCF755F804EB44004E4901234339A5
:1051C0004218C821BDE810408820FCF749B810B546
:1051D0000C46484900EB4000703942180023C821B2
:1051E0004FF4C270FCF73CF804EB44004149002343
:1051F00043394218BDE81040C8214FF4C670FCF78F
:105200002FB830B58DB0182241A1684606F0D8FFFE
:10521000182245A106A806F0D3FF29494FF05010E7
:1052200001234860464AC8213420FCF719F8444A53
:1052300001230A32C8214FF49C70FCF711F8304C5E
:105240003F4DD4F8B803713D1DF8001015F89D0FBF
:10525000FFF7A5FFD4F8B80306A9095C6878FFF743
:10526000B6FF0DB030BD2DE9F047364F144D364E28
:1052700000244FF050184FF4C379A01E052801D325
:10528000082C01D96F6001E0C5F80480002356F8AE
:10529000240006221946FCF77DF8C4EB0411012313
:1052A000084A48463A31FCF72BF8641CE4B20B2C50
:1052B000E3D3BDE8F0870000340B00104400001079
:1052C00014000010684F00104D010010380000104D
:1052D000200000002D000000546573742E2E2E0057
:1052E0000C0F1011160E0D00121314020B171600DE
:1052F000A41B01003C49010000C000405C3A0100D1
:10530000340C00109C49010000C0094074000010DA
:105310000000000000000001010101010101010283
:10532000020303020202000006060302060602064A
:105330000202060606020205040504020606000033
:105340000D4E001034346500384F001089B280B221
:10535000012375A2FBF784BF89B280B2012373A237
:10536000FBF77EBF724808B5724990F8B8230A70FF
:1053700090F8C0234A7090F8C42390F8C833CB70DB
:1053800090F8D0330B7190F818344B7190F82034AA
:10539000CB7190F824340B7290F828344B728A70D9
:1053A00090F874248A7290F87804C87261484FF4B7
:1053B00018726149443006F003FF4FF480700023F7
:1053C00000905E4A1946184604F088FF08BD08B5EB
:1053D0004FF4807000230090584A1946184604F094
:1053E000F4FF08BD30B5554900230878012800D9DD
:1053F0000B704878012800D94B708878012800D9B3
:105400008B704C6E42F20F704FF47A72844200D966
:105410004A668C6E032C01D902248C66CC6E012C5A
:1054200000D9CB6691F82040012C01D981F82030B9
:1054300091F84140022C01D981F841308C6C8442B2
:1054400000D98A64CD6C0324032D00D9CC640D6D82
:10545000012D00D90B654D6E854200D94A668D6ECF
:10546000032D00D98C66CD6E012D00D9CB66D1F805
:105470008030834201D9C1F88020D1F88430032BD9
:1054800001D9C1F884408B6A834200D98A62C86A14
:10549000032800D9CC622A4A002000BF01EB800318
:1054A00002EB8005B3F8B8406D88AC4203D832F8FF
:1054B0002050AC4203D232F82040A3F8B840401C40
:1054C000C0B20628EAD31E4A0020183A01EB800336
:1054D00002EB8005B3F8BA406D88AC4203D832F8CD
:1054E0002050AC4203D232F82040A3F8BA40401C0E
:1054F000C0B20628EAD330BD134908B5114A4A6044
:10550000012801D018B104E04FF47F4000E0FF20F3
:1055100008600E48009018233022F1214FF4D47017
:10552000FBF716FD08BD0000560000006D410000AD
:10553000340C0010F84A0010340D0010340B001029
:10554000244901003800310014000010CC3901005A
:10555000F7484168491C416070474FF48051002072
:1055600003F0EFBC10B54FF48001002003F0E9FC1C
:105570004FF40061022003F0E4FC0421012003F059
:10558000E0FC1021052003F0DCFCBDE81040E4E75E
:1055900010B5012254052146002003F0BCFC214631
:1055A000BDE81040002003F0C4BC10B50122540532
:1055B0002146002003F0AFFC2146BDE8104000204A
:1055C00003F0BFBC10B54FF48001002003F0B1FC24
:1055D000BDE810404FF40061022003F0B2BC10B5EA
:1055E0004FF40061022003F0A4FCBDE810404FF42A
:1055F0008001002003F0A5BC4FF48051002003F08F
:1056000098BC4FF48041012003F093BC4FF48041DB
:10561000012003F096BC0121084603F08ABC012159
:10562000084603F08EBC4FF40071012003F089BCE2
:105630004FF40071012003F07CBC10B5042101205F
:1056400003F077FC1021052003F07BFCBDE810403F
:10565000C5E70221084603F074BC10B504210120FF
:1056600003F06FFC1021052003F06BFC4FF4007178
:10567000012003F066FCBDE81040EAE710B51021F8
:10568000052003F056FC0421012003F05AFCBDE87C
:10569000104097E7A64A516853685B1A8342FBD3D0
:1056A000704710B500284FF480114FF0000002D071
:1056B00003F03FFC01E003F044FCBDE8104014207F
:1056C000E8E710B54FF48061002003F032FC4FF0A2
:1056D0008061022003F035FCBDE810400020E0E7C7
:1056E00010B54FF08061022003F023FC4FF480617D
:1056F000002003F026FCBDE810400120D1E7022184
:10570000084603F016BC10B501229102002003F0F8
:1057100002FC01229106022003F0FDFB0122102170
:10572000052003F0F8FB01220421104603F0F3FBEF
:1057300001221146104603F0EEFB012291031046B0
:1057400003F0E9FB01221103002003F0E4FB012236
:105750000221BDE81040084603F0DDBB10B5012270
:105760001105002003F0D7FB01229105002003F072
:10577000D2FB01229102022003F0CDFB0122D402D0
:105780002146022003F0C7FB21460022BDE810405D
:10579000104603F0C0BB10B501225402214610464A
:1057A00003F0B9FB01229102104603F0B4FB012281
:1057B0000221104603F0AFFB0022A103104603F0C4
:1057C000AAFB0022E103104603F0A5FB00222104FE
:1057D000104603F0A0FB00226104104603F09BFB7F
:1057E0000022A102104603F096FB0022A101012035
:1057F00003F091FB2146BDE81040012003F099BB66
:105800000020401EC0B20A28FBD3704770B5044682
:105810000221012003F095FB00254FF4806620064D
:1058200031464FF0010002D503F083FB01E003F0A5
:1058300088FB0221012003F07CFBFFF7E1FF02213E
:10584000012003F07EFB60066D1C040EEDB2082DF6
:10585000E5D370BD10B5FFF79EFFBDE81040FF20F7
:10586000D4E72DE9F041FF2425460020FFF7CEFFC5
:10587000002003F071FB000201D4002613E0002099
:1058800003F06AFBC00101D401260CE0002003F004
:1058900063FB800101D4022605E0002003F05CFBDD
:1058A00040010DD40326234F0024385DFFF7AEFFDF
:1058B000BEB1012E1AD0022E1DD0032E29D11FE019
:1058C0004FF40021002003F034FB4FF4004101208D
:1058D00003F02FFB012003F03FFB000421D40F2431
:1058E00030E0002003F038FB00020DE0002003F060
:1058F00033FBC00108E0002003F02EFB800103E031
:10590000002003F029FB4001002802DB2546FF2C84
:1059100003D1641CE4B2082CC7D305EBC600C4B2A3
:1059200010E0002003F018FB000505D4072409E06F
:105930003C0000105E490100002003F00DFB000355
:1059400000D437242046BDE8F08110B5FFF789FF69
:105950000F4CFF28207009D00A20FFF79BFEFFF7AD
:1059600080FF60702178884201D1084610BDFF2079
:1059700010BD10B5FFF7E9FFFF28FBD110BD10B532
:10598000FFF73AFE1420FFF785FEBDE81040E4E57E
:105990003C00001070B5FA4DFA4C95F89E0060611D
:1059A000082801D109216161E26A21698A4213D084
:1059B000E162A17821B1491E11F0FF01A1700BD164
:1059C000002809D00026042804D30120607004F0C8
:1059D0006EFB667085F89E6070BDEB494FF4C03079
:1059E0000860FAF737BC2DE9F0471D21112003F0BC
:1059F000C3F8E44C1D216063112003F0DDF86063FF
:105A00001D21112003F0EAF860631D21112003F02D
:105A1000B3F860630121DDA005F0E6F9A06100287C
:105A20002DDDDD4E00254FF4807A4FF4C0384FF461
:105A300080674FF4D07952463168A06905F076FA54
:105A4000606308EB8520E0611D21112003F094F8CC
:105A500060633A463168E06903F09DF860633A4656
:105A60003168E06903F0EAF86D1C60634D45E2D3EC
:105A7000FFF7B3FFA069BDE8F04705F0F0BBBDE854
:105A8000F0872DE9F0410121C4A005F0ADF9BD4C2E
:105A9000206205F007FCA063206A002810DD0025C5
:105AA0004FF48077BC4E07E03A463168206A05F033
:105AB0003DFA6D1CADB26063A06BB5EB102FF3D354
:105AC000BDE8F081AF49AE4810B53C31C83806F0AA
:105AD000E3FAAC483C3006F003FBA949C0B2C83930
