:020000040000FA
:10000000305500107D0200008502000087020000CC
:10001000890200008B0200008D0200000000000039
:100020000000000000000000000000008F0200003F
:10003000910200000000000093020000D156000071
:1000400097020000FB0700001308000023080000CF
:1000500033080000299F000097020000970200006B
:10006000F59F000097020000970200009702000031
:10007000970200009702000097020000970200001C
:10008000970200009DBD000097020000970200004B
:1000900097020000970200009702000097020000FC
:1000A00053B500009702000097020000970200007D
:1000B00097020000970200009702000097020000DC
:1000C00097020000970200009702000097020000CC
:1000D0009702000097020000290500009702000027
:1000E0009702000000F002F800F090F80AA090E8F3
:1000F000000C82448344AAF10107DA4501D100F0E3
:1001000085F8AFF2090EBAE80F0013F0010F18BF1F
:10011000FB1A43F001031847644C0100844C0100B2
:10012000103A24BF78C878C1FAD8520724BF30C823
:1001300030C144BF04680C607047000000230024F5
:1001400000250026103A28BF78C1FBD8520728BFE7
:1001500030C148BF0B6070476E290CF0AA8170292E
:100160000CF0ED8266290FF07E8165290FF07B810E
:1001700067290FF078816129AFF3008003681B0ABB
:1001800028BF41F0800169290BF0F28664290BF049
:10019000EF8675290BF0EC866F290CF07A827829AE
:1001A0000CF0B982E9290CF01582E4290CF01282D6
:1001B000F5290CF00F82EF290CF07782F8290CF06A
:1001C000B8820368DB0928BF41F0800163290CF085
:1001D000238573290CF02885E3290CF03385F32956
:1001E0000CF03885002070471FB50CF089FD040025
:1001F000002000210DF0CCFF401C60600020002199
:100200000DF0B0FFE0601FBD10B510BD0CF04AFD51
:100210001146FFF7E9FF00F0AAF90CF027FE03B43E
:10022000FFF7F2FF03BC0CF02BFE000040BA704752
:10023000C0BA70474FF4C030006885460148006876
:10024000004700BF048001000A4A02EB011110229E
:10025000A1F500710BF0B0BF074A01EB410102EBC1
:100260008101A1F5C0710A6802604A68426089682C
:100270008160704734030100240901000948804768
:1002800009480047FEE7FEE7FEE7FEE7FEE7FEE778
:10029000FEE7FEE7FEE7FEE704480549034A054B93
:1002A00070470000D18E0000E500000030530010C0
:1002B00030550010305300101CB50C46064B7B44E3
:1002C0006946009020460CF00EF90446002069466D
:1002D0000CF01CF920461CBD4BC20000421E12F857
:1002E000013F002BFBD111F8013B002B02F8013B31
:1002F000F9D170477047704770477047FFFFFFFFA5
:10030000834840F20121C0F88011C0F88411C0F880
:100310008811C0F88C11C0F89011C0F89411C0F881
:100320009811C0F89C11C0F8A011C0F8A411C0F831
:10033000A811C0F8AC11C0F8B011C0F8B411C0F8E1
:10034000B811C0F8BC11C0F8C011C0F8C411C0F891
:10035000C811C0F8CC11C0F8D011C0F8D411C0F841
:10036000D811C0F8DC11C0F8E011C0F8E411C0F8F1
:10037000E811C0F8EC11C0F8F011C0F8F411C0F8A1
:10038000F811C0F8FC11C0F80012C0F80412C0F84F
:100390000812C0F80C12C0F81012C0F81412C0F8FD
:1003A0001812C0F81C12C0F82012C0F82412C0F8AD
:1003B0002812C0F82C12C0F83012C0F83412C0F85D
:1003C0003812C0F83C12C0F84012C0F84412C0F80D
:1003D0004812C0F84C12C0F85012C0F85412C0F8BD
:1003E0005812C0F85C12C0F86412C0F84011C0F88E
:1003F0004411C0F84811C0F85011C0F86011C0F89D
:100400007011C0F87411C0F87811C0F87C117047F1
:100410002DE9F041DFF8FC80434653F8C40F40F467
:100420000060186041F61F70C3F818013A4C0122B1
:1004300022600026A660FFF763FF3848384900684D
:10044000B0FBF1F5D86B00B16D084FF47A77B7FBCC
:10045000F5F101F11300B0FBF1F323630F236363A4
:10046000A663E263B0FBF1F0801C2064626401F1DA
:100470003E00B0FBF1FCC4F848C0B0FBF1FCC4F88E
:100480004CC02365B0FBF1F06065A265A26240F24A
:100490000330C4F804014FF48D40C4F80001C4F8DF
:1004A00000016421002000F055F940F28310206221
:1004B000C821002000F04EF940F203102062022013
:1004C0006062401C8028FCD340F2E7104543B5FB36
:1004D000F7F080B2606283202062124800682662D2
:1004E000D4F8000140F40020C4F8000101210020EC
:1004F00000F030F90121002000F02CF9D8F8DC11CF
:1005000021F01F0141F01101C8F8DC11BDE8F081B4
:1005100000C0024000C00F4000C009209000001041
:1005200040420F00004006A010B501221321002018
:1005300008F0ABFD002819D0774901224020C1F80E
:1005400080017648401EFDD17548764903681BB18D
:10055000002202600F2001E0026002200860BDE876
:1005600010404FF40021002008F0AEBD10BD1FB5B3
:10057000002008F090FE4FF47A71B0FBF1F0684E65
:1005800000240F25401E3460B0F1807F0DD220F092
:100590007F414FF0E020491E41615F4AF8210B3254
:1005A00082F8141D8461072101610122D104002019
:1005B00008F04FFD05F00EFA05F065F905F08EF92B
:1005C00005F08CF93460FFF723FF002000F0D6F926
:1005D00055480021406900F0FAF9012000F0CEF9F9
:1005E000002005F0D3F94F4F4FF050186FF07F49BE
:1005F0003D604E4D05F069FA0646FF2805D0286893
:10060000401C2860022802D011E02C600FE0404618
:100610002C6000F0ADFA324645A101A80BF06AFC4F
:100620004B4601AA28217820009400F0B1FB3868DD
:10063000022804D00F28DDD107F0A8FBDAE705F087
:10064000DEFAD7E770B501213AA00AF043FC041E98
:100650000EDD3B4D4FF480663246204629680AF095
:10066000DBFC0028F8D12046BDE870400AF06DBEE2
:1006700070BD2DE9F04701212EA00AF02BFC061ECB
:1006800020DD2F4F4FF48068424639680AF0C4FCE1
:1006900002212CA00AF01EFC051E13DDC146DFF866
:1006A000B08000244A46284639680AF0C8FD044450
:1006B0004445F7D328460AF048FE3046BDE8F047E7
:1006C0000AF043BEBDE8F0872DE9F041012119A0F1
:1006D0000AF000FC071E1DDD02211AA00AF0FAFB39
:1006E000061E17DD164D4FF48068424638462968CD
:1006F0000AF092FC04460246304629680AF09FFD43
:10070000002CF2D130460AF020FE3846BDE8F04118
:100710000AF01BBEBDE8F08104E000E0FDFFFF0031
:10072000840000108C0000101C00001070000010ED
:10073000253264007570646174652E62696E000014
:10074000180100104A4B32353230422E54585400B2
:1007500080969800F0B5834A0023FF25042612688E
:100760004FF0020C4FF47A740127A8B1012824D06D
:10077000022832D003280ED17B48C0F804C0C360E1
:10078000B2FBF4F2521E4A43826105604661476043
:100790004168C907FCD1F0BD4FF04020C0F804C04B
:1007A000C360B2FBF4F2521E4A43826105604661A7
:1007B00047604168C907FCD1F0BD6C48C0F804C06F
:1007C000C360B2FBF4F2521E4A4382610560466187
:1007D00047604168C907FCD1F0BD6548C0F804C056
:1007E000C360B2FBF4F2521E4A4382610560466167
:1007F00047604168C907FCD1F0BD4FF0402101209E
:1008000008605C480168491C01600169491C01617C
:10081000704756490120086056484168491C4160AC
:10082000704753490120086052488168491C816023
:1008300070474D49012008604E48C168491CC1609D
:100840007047012138B1012808D0022809D00328B7
:1008500006D1454803E04FF0402000E043484160A6
:1008600070474348FBE7002140B1012809D0404AC6
:10087000022801D0032800D1516070474FF040207A
:1008800000E03A484160704738B101280CD0022896
:100890000CD0032807D1344809E04FF040214868C4
:1008A00040F0020048607047304800E0304841683E
:1008B00041F002014160704770B500242D4D2E4A71
:1008C0004EF65F26032338B1012816D0022824D023
:1008D00003282DD0002070BD2C6052F8C40F40F0CA
:1008E000020010604FF04020426842F00202426075
:1008F000C66081614361012024E06C6052F8C40F3E
:1009000040F0040010601948426842F0040242605E
:10091000C66081614361022014E0AC6052F8C40FEC
:1009200040F480001060124881614361032009E0B7
:10093000EC6052F8C40F40F4000010600A48816176
:100940004361042000F002F8012070BD00F01F0296
:10095000012191404009800000F1E020C0F8001121
:1009600070470000940000100040094000800040E3
:10097000000009400000001000C00F40F84908B511
:100980000028886942F210720CD040F001008861A2
:100990000092886940F4006088610098401E0090D1
:1009A000F7D108BD20F40060886110460092401E17
:1009B0000090FCD1886920F00100886108BDE94AF7
:1009C000002108C8491C08C28029FAD3704770B5B5
:1009D000E64BE54C4FF0270208001A615A61C3F854
:1009E0007022C3F87422C3F81821C3F81C21C3F87D
:1009F0002021C3F824219A61DA61C3F8D020C3F81A
:100A0000D420C3F8D820C3F8DC20C3F8E020C3F812
:100A1000E4201A625A62C3F83021C3F83421C3F8C3
:100A2000E820C3F8EC20C3F8F020C3F8F420C3F8A2
:100A30000821C3F81421C3F80C21C3F81021C3F80E
:100A40000021CB4A116C41F002011164916D41F01B
:100A50000A019165C74951F8C42F42F001020A60AA
:100A6000C54A136823F001031360BD4A4FF0000329
:100A70009361956925F00E059561956945F00A0524
:100A80009561956945F020059561956925F080058A
:100A90009561956925F480759561956925F40075D2
:100AA0009561956925F480659561956925F40065E2
:100AB0009561B24DB24E2D68B5FBF6F5C1F8F45014
:100AC000916841F080619160916821F0200191600E
:100AD000916841F400619160916841F480519160A6
:100AE000916821F400519160916821F480419160F6
:100AF0009168A44D01EA050191609168A24D41EA17
:100B0000050191601360116841F01C51116011687A
:100B100041F480211160116841F480711160116805
:100B200041F0740111605360516841F000615160FF
:100B3000516841F400215160516841F48061516075
:100B4000516840F20F1341EA03015160146154618E
:100B500001D0FFF734FF00204FF47F01CA1102C417
:100B6000401C9042FBD342F20E70401EFDD170BD7E
:100B70007D4A00214FF4FF3301C2491C9942FBD347
:100B80007047F0B5A1EB0114E401804DA4EB8004A3
:100B90002C44121A0025C2F5F076591A059F09E077
:100BA000002002E044F80479401C8242FAD8A4EB09
:100BB00086046D1CA942F3D8F0BD6B4BB0F5F07FF5
:100BC0000DD2B1F5887F0AD2A1F20F11C0F5F070F5
:100BD000A1EB011100EB4110401E43F820207047AB
:100BE0002DE9F0431746DDF81C901E460D460446DD
:100BF000B84201D9274694B2B54201D90E469DB2FA
:100C0000381B711B00B20FFA81FC68B1BCF1000FF8
:100C100015D0604531DDC0EB4C010EB24FEA4C01FE
:100C2000404201EB400825E04A4629462046FFF7AE
:100C3000C4FF6D1CADB2AE42F6D2BDE8F0834A46A9
:100C400029462046FFF7B9FF641CA4B2A742F6D29A
:100C5000F3E74A4629462046FFF7AFFF641CA4B2DB
:100C6000002E04DD6D1CADB208EB060001E006EBC2
:100C70004C0006B2BC42ECD11BE0CCEB40010FB201
:100C80004FEA4C01404201EB400810E04A46294639
:100C90002046FFF792FF6D1CADB2002F04DD641CEF
:100CA000A4B208EB070001E007EB4C0007B2B54225
:100CB000ECD14A4629462046BDE8F0437DE72DE9C0
:100CC000FF5F884606469A4611466846DDF838B00A
:100CD000FFF7BAFA0025E946002419F805C008EB29
:100CE000050700BFC4F107002CFA00F0C00706EBAF
:100CF0000400B9B280B201D0524600E05A46FFF774
:100D00005CFF641C082CEDD36D1C102DE4D3BDE8F2
:100D1000FF9F2DE9FE4F0F4681469A4611466846D1
:100D2000FFF79AFA0025E846002418F8056007EB5B
:100D3000050C00BFC4F1070026FA00F0C00707D079
:100D400009EB04001FFA8CF180B25246FFF735FF21
:100D5000641C082CEED36D1C0C2DE5D3BDE8FE8F72
:100D60000080082000820820000001A000C002408E
:100D70000080092000C00F40008C08209400001063
:100D80009C997400FFFF00FC0000DF01FCF708A045
:100D90002DE9F8439946DDF8207016460D460446C5
:100DA0004FF4EC7816F8012B4B4629462046009765
:100DB000FFF785FF444502D20834A4B207E0FF2DB7
:100DC0004FF0000402D81035ADB200E000253078B5
:100DD0000028E7D1BDE8F8832DE9FF4F81B09046A8
:100DE0000C46054606460F464FF0000CA6F11400CF
:100DF00080B242462146FFF7E0FEA7F11400761CC0
:100E000081B2B6B242462846FFF7D7FE7F1C0CF1EE
:100E1000010C1FFA8CFCBFB2BCF1280FE6D3A4F181
:100E200014002E4627464FF0000C04F1140AA5F1D9
:100E3000140B05F1140900900098A6F1140881B272
:100E40001FFA88F0049AFFF7B8FE1FFA8AF11FFA1A
:100E500088F0049AFFF7B1FE761CA7F11408B6B229
:100E60001FFA88F11FFA8BF0049AFFF7A6FE1FFA0B
:100E700088F11FFA89F0049AFFF79FFE7F1C0CF19E
:100E8000010C1FFA8CFCBFB2BCF10A0FD4D30026B0
:100E9000A4F1140A04F11409A5F1140805F11407CA
:100EA00005F10A0C1FFA8AF11FFA8CF0049AFFF779
:100EB00084FE1FFA89F11FFA8CF0049AFFF77DFE79
:100EC0006D1C04F10A0CADB21FFA8CF11FFA88F008
:100ED000049AFFF772FE1FFA8CF1B8B2049AFFF77A
:100EE0006CFE641C761CB6B2A4B20A2ED8D305B030
:100EF000BDE8F08F30B50246F9491378002000BFF5
:100F000000EB80140D5D9D4204D10C44557864784B
:100F1000A54204D0401C0004000CF1D0002030BDDC
:100F200030B50246EE4900201378413100EB001441
:100F300011F814509D4205D101EB440455786478B2
:100F4000A54204D0401C80B23C28EFD3002030BD25
:100F50002DE9F04F044684468B46002502FB03F042
:100F6000C1179046DFF87CA300EB517921E0099886
:100F70000026475D380602D5DAF8002001E0DAF8ED
:100F8000042059462046FFF718FE641C7806A4B2D8
:100F9000070EA4EB0C01414505D10BF1010064469D
:100FA0001FFA80FB03E0761CF6B2082EE2D36D1C1C
:100FB000ADB2B5EBE90FDADB9AE72DE9F0478946E8
:100FC000C7490446054602EB02104131DFF814A37D
:100FD00001EB40084FF000065BBB00BF08EB0600CA
:100FE0005FF0000790F802C05FEA0C6002D5DAF803
:100FF000002001E0DAF8042049462046FFF7DDFD35
:101000004FEA4C60641C4FEA106CA4B2601B1028BD
:1010100009D07F1CFFB2082FE6D3761CF6B2202E33
:10102000DCD3BDE8F08709F101002C461FFA80F9F6
:10103000F3E708EB0600002790F802C05FEA0C60B7
:1010400002D5DAF8042001E0DAF80020494620460B
:10105000FFF7B3FD4FEA4C60641C4FEA106CA4B27A
:10106000601B102808D07F1CFFB2082FE6D3761C27
:10107000F6B2202EDDD3D4E709F101002C461FFA89
:1010800080F9F4E72DE9F04789460446054694497E
:1010900002EB8210DFF84CA200EB01084FF00006D3
:1010A00053BB00BF08EB06005FF0000790F802C0DA
:1010B0005FEA0C6002D5DAF8002001E0DAF80420DB
:1010C00049462046FFF779FD4FEA4C60641C4FEA21
:1010D000106CA4B2601B182808D07F1CFFB2082F28
:1010E000E6D3761CF6B23F2EDCD39AE709F1010075
:1010F0002C461FFA80F9F4E708EB06005FF00007C2
:1011000090F802C05FEA0C6002D5DAF8042001E032
:10111000DAF8002049462046FFF74FFD4FEA4C60C1
:10112000641C4FEA106CA4B2601B182808D07F1C06
:10113000FFB2082FE6D3761CF6B23F2EDCD370E761
:1011400009F101002C461FFA80F9F4E730B5144686
:101150000D46024621462846FFF794FF182030BD71
:1011600030B514460D46024621462846FFF725FFB6
:10117000122030BD2DE9F84F9A4615460C4606461A
:1011800000274FF4F0784FF488792A78002A3AD073
:10119000F01986B2802A15D906F11800404505D904
:1011A00016340026A4B24C4500D900242846FFF787
:1011B000A1FE80B2534622463146FFF7C7FF0746DD
:1011C000AD1CE2E70D2A15D00A2A1AD006F10C0050
:1011D000404505D90C340026A4B24C4500D9002462
:1011E000404841680091036821463046FFF767FD9B
:1011F0006D1CCAE71634A4B24C4500D90024002760
:10120000F6E70026FBE7BDE8F88FF8B515460F4670
:10121000064600242878002821D0A0F130010929B1
:1012200001D888B204E02E2815D02D2815D00C2026
:1012300000EBC001C1EB80102B49372301EB80008C
:101240000090301980B220223946FFF781FE203409
:10125000A4B26D1CDEE70A20EAE70B20E8E7F8BD40
:101260002DE9F8430646994615460C4600204FF4F2
:10127000F0774FF488782A78002A40D0304486B23C
:10128000802A14D906F11000B84205D9103400267E
:10129000A4B2444500D900242846FFF741FE80B29D
:1012A0004B4622463146FFF75BFFAD1CE3E70D2AB4
:1012B0001CD00A2A21D006F10800B84205D908340A
:1012C0000026A4B2444500D9002406484168009194
:1012D000036821463046FFF7F2FC0A206D1CCAE77E
:1012E0005AF5000014000010D40F01001034A4B20D
:1012F000444500D900240020F0E70026FBE769E51B
:101300002DE9F8430646994615460C4600204FF451
:10131000F0774FF488782A78002A3AD0304486B2A1
:10132000802A14D906F11000B84205D910340026DD
:10133000A4B2444500D900242846FFF7F1FD80B24D
:101340004B4622463146FFF70BFFAD1CE3E70D2A63
:1013500016D00A2A1BD006F10800B84205D9083475
:101360000026A4B2444500D900244C4841680091AD
:10137000036821463046FFF7CCFC08206D1CCAE705
:101380001034A4B2444500D900240020F6E700261A
:10139000FBE71FE5F0B5062A01D90A2201E002B9F0
:1013A0000122052900D90521914200D911460025C5
:1013B0003B4C202666556D1CEDB20C2DFAD315461C
:1013C0000A270DE0B0FBF7FC07FB1C0CB0FBF7F0A5
:1013D00004EB050E0CF1300C6D1E0EF801CCEDB2D5
:1013E000002DEFD169B1104605E0251815F8015C14
:1013F0002554401EC0B2491EC9B2F6D22E21215436
:1014000000E0A65473B90020511E09E0235C302B84
:1014100008D123185B782E2B04D02654401CC0B270
:101420008842F3DB521CD0B2002102E02154401C60
:10143000C0B20C28FAD3F0BD30B51A4A00214FF4DF
:10144000FF3400BF10F8013B491C10F8015B1B047E
:1014500043EA052310F8015B2B4308C2A142F1D3F4
:1014600030BDF0B50F4900234FF4B5754FF48876C1
:101470005FF0000210F8014B521C10F8017B2404AD
:1014800044EA072410F8017B3C4310C1AA42F1D37F
:101490005B1C01F5EC71B342EAD3F0BD14000010FF
:1014A000CC4D0010000001A02DE9F84F0024A24609
:1014B0004FF04C0940F20F18FE4F4FF04E0BFE4814
:1014C000009004EB4401A00001EB041100EB81004B
:1014D00004EB840509EB051680B2B2B24346E42161
:1014E000FFF74FFB012000EB0510E323B2B280B2FF
:1014F00019460097FFF774FBB2B2B0B24346E3213E
:101500000097FFF76DFB4D2000EB051082B25646A9
:1015100080B24346E321CDF800A0FFF761FB0BEB5F
:10152000051082B280B24346E3210096FFF758FBD4
:101530004F2000EB051082B280B24346E3210096B3
:10154000FFF74EFB641C062CB9D3BDE8F88F10B52D
:10155000FFF7AAFFD948D849002341606FF07F41C7
:101560000160D7A2F1215420FFF77AFE0023F12178
:10157000BDE81040D4A2A420FFF772BE70B50446A7
:10158000FFF792FFCD48CC49D14D41606FF07F41CC
:101590005426016094B1002404EB440005EB4002A2
:1015A00004EB840006EB00100023F1211E32FFF74C
:1015B00057FE641CE4B2052CEED370BD04EB44006E
:1015C00005EB400204EB840006EB00100023F12140
:1015D000FFF746FE641CE4B2052CEFD370BD10B5D6
:1015E000FFF762FFB548B4494FF0000341606FF068
:1015F0007F410160B74890F8D40008B1B6A200E07E
:10160000B8A2F121BDE810405420FFF729BE10B563
:10161000FFF74AFFA948A849002341606FF07F41C6
:101620000160F121BDE81040B0A25420FFF718BEC0
:1016300010B50446FFF738FFA0499F48A54A6FF050
:101640007F438CB1C1E9003092F8D400012C71D0F5
:1016500000284FF000036CD0A5A2F2215320FFF721
:10166000FFFD0023A4A2ABE0C1E9003092F8D40052
:101670004FF4A27400284FF000032BD0A0A2E72162
:101680005420FFF7EDFD00239FA2FB215420FFF71C
:10169000E7FD00239AA2E721A420FFF7E1FD002344
:1016A0009BA2FB21A420FFF7DBFD00239AA2E721E8
:1016B000F420FFF7D5FD002395A2FB21F420FFF7CE
:1016C000CFFD002394A2E7212046FFF7C9FD0023A8
:1016D00092A22AE093A2E7215420FFF7C1FD002344
:1016E00092A2FB215420FFF7BBFD00238DA2E7212E
:1016F000A420FFF7B5FD00238EA2FB21A420FFF755
:10170000AFFD00238DA2E721F420FFF7A9FD002300
:1017100088A2FB21F420FFF7A3FD002387A2E72185
:101720002046FFF79DFD002386A2FB21204649E0CD
:1017300000E03EE04FF4CA744FF00003C8B183A24A
:10174000E7215420FFF78CFD002382A2FB215420C7
:10175000FFF786FD002381A2E721A420FFF780FD8B
:10176000002380A2FB21A420FFF77AFD00237FA2A3
:1017700018E080A2E7215420FFF772FD00237FA22A
:10178000FB215420FFF76CFD00237EA2E721A4205B
:10179000FFF766FD00237DA2FB21A420FFF760FD7B
:1017A00000237CA2E7212046FFF75AFD00237BA2FD
:1017B000BBE77CA2F2215320FFF752FD00237BA25E
:1017C000F221A320BDE81040FFF74ABD70B5FFF736
:1017D0006BFE3A486FF07F414FF4A27401603649C6
:1017E00041603C484FF4CA754FF0000390F8D400B4
:1017F00098B170A2E7215420FFF732FD00236FA2B9
:10180000FB215420FFF72CFD00236EA2F12120467E
:10181000FFF726FD00236DA212E06EA2E7215420FF
:10182000FFF71EFD00236DA2FB215420FFF718FDDA
:1018300000236CA2F1212046FFF712FD00236BA2CA
:101840002846BDE87040F121FFF70ABD70B5044697
:10185000FFF72AFE194918481E4A6FF07F434FF4DC
:10186000A2754FF4CA761CB3012C21D0C1E9003017
:1018700092F8D4004FF0000300281AD05DA2F121A5
:101880005420FFF7EDFC00235DA2E721A420FFF721
:10189000E7FC00235CA2FB215FF0A400FFF7E0FC63
:1018A000002348A2F1212846FFF7DAFC0023AFE02D
:1018B000B1E0F1E068436900380031001400001025
:1018C000206DA6B82020000020A6B820000000004F
:1018D000404801009809001020436F6E6669726DE0
:1018E0002000000020C8B7C8CF2000002A31000027
:1018F00043616E63656C0000436F6E6669726D00D4
:101900004D45415300000000444953500000000081
:10191000534554555000000053595300494E464F0B
:1019200000000000B2E2C1BF00000000CFD4CABE78
:1019300000000000C9E8D6C300000000CFB5CDB359
:1019400000000000D0C5CFA20000000046696C6511
:10195000730000004D616E6167650000536176653C
:101960000000000044617461000000004D6F72656A
:1019700000000000CEC4BCFE00000000B9DCC0EDD9
:1019800000000000B1A3B4E600000000CAFDBEDD07
:1019900000000000B8FCB6E00000000020322F324A
:1019A000000000002020C8A1CFFB20002020C8B7E5
:1019B000C8CF200044656C65746500005461626C9A
:1019C0006500000050524556000000004E45585436
:1019D00000000000C7E5B3FD00000000B1EDB8F164
:1019E00000000000C9CFD2BBD2B30000CFC2D2BB2F
:1019F000D2B3000044656C2D4C696E650000000098
:101A00004175746F00000000436F707900000000A2
:101A1000AFF248025BE0C1E9003092F8D4004FF029
:101A20000003E8B1AFF23402F1215420FFF718FCB3
:101A30000023FCA2E721A420FFF712FC0023AFF251
:101A40004002FB21A420FFF70BFC0023F7A2E721B3
:101A5000F420FFF705FC0023FB21F7A2F4201DE78B
:101A6000F7A2F1215420FFF7FBFB0023F6A2E721A8
:101A7000A420FFF7F5FB0023F5A2FB21A420FFF72C
:101A8000EFFB0023F4A2E721F420FFF7E9FB00239A
:101A9000FB21EFA2F4200EE0E9A2F1215420FFF790
:101AA000DFFB0023EAA2E721A420FFF7D9FB0023F4
:101AB000EBA2FB21A420FFF7D3FB0023AFF2DC0253
:101AC000F1212846FFF7CCFB0023AFF2E0023046BD
:101AD000BDE87040F121FFF7C3BB10B50446FFF726
:101AE000E3FCE149E148E24A6FF07F437CB3012C1B
:101AF0007ED1C1E9003092F8D4004FF4CA740028B6
:101B00004FF0000375D0AFF2BC12E7215420FFF76D
:101B1000A7FB0023AFF2C412FB215420FFF7A0FB68
:101B20000023AFF20C22E721A420FFF799FB00234A
:101B3000D0A2FB21A420FFF793FB0023CFA2F12129
:101B4000F420FFF78DFB0023AFF2E01299E0FFE7EE
:101B5000C1E9003092F8D4004FF4A27400284FF08D
:101B6000000333D0AFF26822E7215420FFF778FB5F
:101B70000023AFF26C22FB215420FFF771FB0023FE
:101B8000AFF28422E721A420FFF76AFB0023AFF223
:101B90008022FB21A420FFF763FB0023AFF2882201
:101BA000E721F420FFF75CFB0023AFF29C22FB212E
:101BB000F420FFF755FB0023AFF2A422E7212046D3
:101BC000FFF74EFB0023AFF2AC2261E0AFF2AC2294
:101BD000E7215420FFF744FB0023AFF2B022FB21A2
:101BE0005420FFF73DFB0023AFF2C822E72101E0BC
:101BF00054E022E0A420FFF733FB0023AFF2CC2215
:101C0000FB21A420FFF72CFB0023AFF2D022E72119
:101C1000F420FFF725FB0023AFF2E822FB21F4209C
:101C2000FFF71EFB0023AFF2EC22E7212046FFF76F
:101C300017FB0023AFF2F4222AE0AFF2C822E7211B
:101C40005420FFF70DFB0023AFF2D022FB215420DC
:101C5000FFF706FB0023AFF21C32E721A420FFF7B9
:101C6000FFFA0023AFF23432FB21A420FFF7F8FA89
:101C7000002384A2F121F420FFF7F2FA0023AFF24F
:101C8000EC22E7212046FFF7EBFA0023AFF2F42223
:101C90002046BDE81040FB21FFF7E2BA10BD7248B4
:101CA00010B56FF07F4101607049416070484FF49A
:101CB000A2744FF0000390F8D400002833D0AFF2A4
:101CC000C032E7215420FFF7CBFA0023AFF2C8322D
:101CD000FB215420FFF7C4FA0023AFF2DC32E721E6
:101CE000A420FFF7BDFA0023AFF2DC32FB21A420D1
:101CF000FFF7B6FA0023AFF2E032E721F420FFF756
:101D0000AFFA0023AFF2F832FB21F420FFF7A8FA74
:101D10000023AFF2FC32E7212046FFF7A1FA0023AF
:101D2000AFF2084232E0AFF20442E7215420FFF75D
:101D300097FA0023AFF20C42FB215420FFF790FAF0
:101D40000023AFF22042E721A420FFF789FA002305
:101D5000AFF22042FB21A420FFF782FA0023AFF26A
:101D60002442E721F420FFF77BFA0023AFF23C4244
:101D7000FB21F420FFF774FA0023AFF24042E72181
:101D80002046FFF76DFA0023AFF248422046BDE837
:101D90001040FB21FFF764BA08B53C4800210090D1
:101DA0001623F0220846FEF7ECFE08BD08B53848B9
:101DB0000090CA2340F2DF125C210020FEF7E1FE12
:101DC00008BD10B5FFF7E8FFFFF76EFBBDE8104058
:101DD000ECE770B524494FF47F4000242D4D1A26BE
:101DE000C1F8000004EBC400421904EB440000EB0E
:101DF000C40006EB400100231846FFF731FA641CCB
:101E0000E4B2032CEED3002323A219461846FFF7B1
:101E100027FA002323A21A211620FFF721FA002314
:101E200050E000004C696E65617200004C6F6761A4
:101E3000726974686D0000004179746F00000000E1
:101E4000C9BEB3FDD0D00000CFDFD0D40000000069
:101E5000D7D4B6AF00000000B6D4CAFD0000000021
:101E6000B8B4D6C6000000001400001038003100DD
:101E7000980900105365745570000000546F6F6C22
:101E800073000000B9A4BEDF00000000F35203009D
:101E900034346500223A0100C9FDBCB6CBB5C3F7A6
:101EA00000000000B2E5C8EB55C5CC2CB2A2B0B41E
:101EB000CFC2D3D2CFC2BDC7B5C455C5CCC1ACBD4E
:101EC000D3BCFC00E4A230211620FFF7C9F9BDE81D
:101ED000704000234621EDA21620FFF7C1B92DE97D
:101EE000F047FFF76EFFF74CF7486FF07F46F74D6E
:101EF000C4E9006095F8D4004FF0000308B1F44A3B
:101F000001E0F34AF23A04210020FFF7A9F94FF06B
:101F10005010C4E90060EF4F00244FF01A09A7F1F8
:101F20003C086FF0270601E0032C1FD295F8D4007F
:101F300020B104EB840007EB400203E004EB8401D2
:101F400008EB410204EB440000EBC40109EB410043
:101F500081B200234FEA0300FFF782F9641C062CCC
:101F6000E2D3BDE8F0470020FFF762BB95F8D4004C
:101F700020B104EB840007EB400203E004EB840192
:101F800008EB410204EB440000EBC40006EB400008
:101F900081B20023FA20DFE708B5CF480090BE23C6
:101FA00040F2DF1270210020FEF7EBFD08BD10B5F6
:101FB000FFF7F2FEFFF778FABDE81040ECE738B51E
:101FC000C04D04464FF050106860C448012300EB38
:101FD0008402C8211420FFF743F9C04801235C3074
:101FE00000EB8402C8214FF48C70FFF739F9BA482E
:101FF0006860BB480090372328227A215020FEF7E2
:10200000A7FFB8480090372328227A217820FEF7CE
:102010009FFFB5480090372328227A218C20FEF7B5
:1020200097FF38BD2DE9F047FFF7C1FFA54CA64843
:102030006FF07F46A54DC4E9006095F8D4004FF0DD
:10204000000308B1A24A01E0A14AF23A04210020AB
:102050001632FFF705F94FF05010C4E90060A34FA6
:1020600000244FF01A09A7F138086FF0270601E0A5
:10207000032C20D295F8D40010B107EBC40201E084
:1020800008EBC40204EB440000EBC40109EB41007F
:1020900081B200234FEA0300FFF7E2F8641C072C2B
:1020A000E6D3934890F8B803FFF789FFBDE8F047FF
:1020B0000020FFF7BDBA95F8D40010B107EBC402B9
:1020C00001E008EBC40204EB440000EBC40006EBA3
:1020D000400081B20023FA20DEE738B57E4C40F2A2
:1020E000DF15A0232A46562100200094FEF749FD63
:1020F000E3232A46C12100200094FEF742FD38BDAB
:1021000010B5FFF749FEFFF7CFF9BDE81040E4E74F
:102110000B46784930B4085C183100EB4000441895
:1021200091B2224698B230BC0023FFF799B82DE94E
:10213000F047FFF7E5FF634D63486FF07F44634E60
:10214000C5E9004096F8D4004FF0000308B1604A9A
:1021500001E05F4AF23A042100202C32FFF780F8B8
:102160004FF05019C5E90049DFF86481002408F1F7
:10217000F2084FF6FF7708F1150A00BF96F8D40071
:10218000C4EBC40110B101EB080201E001EB0A024B
:1021900004EB840007EA401000231A21FFF760F8DF
:1021A000641C032CEAD3524E0123D6F8C00300EB83
:1021B000400101EBC0004949D43142181A213C20AA
:1021C000FFF74EF896F80C1100230622D6F8080106
:1021D000FFF7E0F80123484A1A21DC20FFF740F816
:1021E000D6F81001434900EB40001539421801238D
:1021F0001A214FF49170FFF733F81A224FF49671B9
:10220000D6F8B803FFF784FF00233CA22E2118461E
:10221000FFF776F800233AA22E217820FFF770F816
:10222000002339A22E21F020FFF76AF8002338A2FC
:102230002E214FF4C870FFF763F80624DFF898806A
:102240004F4669E0A4F10800052802D3A01F082822
:1022500062D9C5F8048060E0C8F4B1EACAB6B1E456
:10226000B3C9C2CCC9ABD4F2CBB5C3F7C1ACBDD3F3
:10227000B3C9B9A62CD4D9B0B4CFC2D6D0BCE4BCB3
:10228000FCBFAACABCC9FDBCB6000000C9FDBCB6F3
:10229000CDEAB3C9BAF3BBE1D7D4B6AFCCF8D7AA6D
:1022A000D6F7B3CCD0F22CC8F4BADAC6C1C7EBB6B5
:1022B000CFBFAAB5E7D4B4BAF3D4D9C9CFB5E7D65E
:1022C000D8C6F40014000010F3520300980900105F
:1022D00036450100AF3A0100343465005F3C01002F
:1022E000D92201001C3501002F360100A440010055
:1022F000980A001091480100CC4D001042494E0050
:102300004C4F57205B465D00484947485B465D009F
:10231000434F554E540000006F60C4EBC40006EB01
:10232000C00151F8200C60B111F81C1C01230622D9
:10233000FFF730F8C4EB0410203881B20123FD4AC6
:1023400005E0C4EB0410203881B20123FAA2782002
:10235000FEF7D6FF641C0F2CFFF474AFC5F80480A1
:10236000D6F8440340B196F8481301230622FFF73C
:1023700011F80123EF4A01E00123EFA2C4217820E4
:10238000FEF7BEFF102409E0A4F11200052802D3D5
:10239000801C082802D9C5F8048000E06F60C4EBF7
:1023A000C40006EBC001A1F58051D1F8CC0D60B19D
:1023B00091F8D01D01230622FEF7ECFFC4EB0410B8
:1023C000B63881B20123DB4A05E0C4EB0410B6380D
:1023D00081B20123D8A2FA20FEF792FF641C192CC7
:1023E000D2D3C5F80480D6F8440350B196F82C1324
:1023F00001230622D6F82803FEF7CCFF0123CD4A9D
:1024000001E00123CCA2C421FA20FEF779FF464661
:10241000B8460124CA4F04E0E01E052801D26E60D0
:1024200001E0C5F8048004EBC400C219C4EB041039
:102430002B3081B200230820093AFEF761FF641CAB
:102440000A2CE9D30023BFA2C42118466E60FEF710
:1024500057FF0023BCA2D4211846FEF751FF0023EA
:10246000BBA2D421F020FEF74BFFBDE8F0470020CF
:10247000FFF7DEB808B5B8480090A02340F2DF129D
:1024800060210020FEF77DFB08BD10B5FFF784FC3E
:10249000FFF70AF8BDE81040ECE770B5FFF7F5FF6D
:1024A000AE4CAF486FF07F45AE4EC4E9005096F891
:1024B000D4004FF0000308B1AB4A01E0AA4AF23A57
:1024C000042100204232FEF7CBFE4FF05010C4E949
:1024D000005096F8D4004FF0000368B1A3A21A216F
:1024E0000020FEF7BDFE0023A2A230212820FEF727
:1024F000B7FE0023A2A20CE0A3A21A210020FEF73F
:10250000AFFE0023A2A230212820FEF7A9FE00235F
:10251000A2A230218C20FEF7A3FE0023A1A230212D
:10252000F020FEF79DFE0023A0A230214FF4AA70F8
:10253000FEF796FE00239FA230214FF4DC70FEF7D9
:102540008FFEBDE870400020FFF772B808B58248E2
:1025500000909A2340F2DF125A210020FEF711FB6F
:1025600008BD10B5FFF718FCFEF79EFFBDE8104050
:10257000ECE72DE9F05FFFF7F4FF784D78486FF056
:102580007F44784EC5E9004096F8D4004FF0000330
:1025900008B1754A01E0744AF23A04210020583229
:1025A000FEF75EFE4FF05010C5E90040DFF80892DC
:1025B00000241A27DFF8A0B1A9F1B40A804607E089
:1025C000092C25D2E01E032802D2C5F804B001E090
:1025D000C5F8048096F8D40004EB840110B109EB2F
:1025E000410201E00AEB410204EB440000EBC400AD
:1025F00007EB400081B200234FEA0300FEF730FEF4
:10260000641C122CDCD3BDE8F05F0020FFF765BA34
:10261000A4F10C00032802D2C5F804B001E0C5F80B
:10262000048096F8D40004EB840110B109EB410258
:1026300001E00AEB410204EB440000EBC4016FF03F
:10264000AB0000EB410081B20023FA20D6E72DE970
:10265000F843424D594C4FF050190746C5F80490C5
:10266000D4F8B803012300EBC00155480A181A2119
:102670005820FEF7F5FDD4F8C003012300EB40011C
:1026800001EBC0004F49421830215820FEF7E8FD09
:10269000D4F8C403012300EB400101EBC0004A4918
:1026A000421846215820FEF7DBFD2E484FF4A9764C
:1026B00090F8D40010B1D4F81804D0B3D4F81804AA
:1026C00000EB400101EBC0003F49213142180023DB
:1026D0001A213046FEF7C4FDD4F82004012300EB94
:1026E000400101EBC0003849B04673314218462121
:1026F0003046FEF7B5FDD4F81C04334E00EB400124
:1027000001EBC00094368219012330214046FEF7C8
:10271000A7FD3878012872D04846686000906E2383
:102720004FF4DD725A214046FEF72BFAD4F8280107
:102730004CE05FE0CC4D00102D2D2D2D2D2D0000F7
:10274000223A0100326E64004155583A0000000000
:102750004F55543A00000000343465001400001056
:10276000F352030098090010364501004D6F64656F
:102770003A000000467265715B487A5D0000000017
:102780004C45565B565D0000B7BDCABD203A0000FF
:10279000C6B5C2CA5B487A5D00000000B5E7C6BD99
:1027A0005B565D0043705B465D000000445B205D4E
:1027B00000000000434D500090410100980A0010B5
:1027C000873B0100333D0100923F010000EB4001D7
:1027D00001EBC000821901235C214046FEF740FD59
:1027E000FEF762FE387801280BD0BDE8F8430020E0
:1027F000FEF71EBF0023AFF6F85269E7FFE7FF20A0
:102800008BE76FF07F402860FE4800246860542505
:1028100004EB440000EBC400821904EB840005EBD8
:10282000001080B20023F121FEF71AFD641C022C77
:10283000EED3BDE8F883F8B5F34C05464FF05010E1
:1028400060602878012801D0606801E0FF206060A6
:102850004FF4BE7700902A234FF4D7721A213846DE
:10286000FEF78FF9E948EA4E0123D0F85C0300EB4C
:10287000400101EBC00082191A213846FEF7F0FC36
:10288000FEF712FE2878012804D0BDE8F8400020A9
:10289000FEF7CEBE6FF07F402060DA486060002413
:1028A0005FF0540504EB440000EBC400821904EB14
:1028B000840005EB001080B20023F121FEF7D0FC6C
:1028C000641C022CEED3F8BD2DE9F05F0124DFF883
:1028D0004493DFF83483CD4D4FF4AD7B4FF0501A65
:1028E0003326E71E042F02D2C8F8049001E0C8F88E
:1028F00004A095F87D0400EB800004EB400000EBA1
:10290000800005EB8001D1F81806421C3DD091F8FB
:102910001C1601230522FEF73DFDBF4A06EB0411FC
:102920000023F620FEF7ECFC95F87D0400EB800018
:1029300004EB400000EB800005EB800101F58051C5
:10294000D1F88006421C25D091F884160123052277
:10295000FEF720FDB04A06EB041100235846FEF7AF
:10296000CFFC95F87D0400EB800004EB4000284488
:1029700000F5005090F8F306FF2810D006EB041184
:102980004FF0000380B1A5A20FE006EB0411002375
:10299000A3A2C6E706EB04110023A1A2DEE706EB23
:1029A00004110023A0A200E0A0A24FF4DF70FEF704
:1029B000A7FC042F02D2C8F8049001E0C8F804A0D4
:1029C00095F87D0400EB800004EB4000284490F86B
:1029D0007D041E2804D906EB0411002390A208E010
:1029E00000EB400101EBC0009149421806EB0411D5
:1029F00000232620FEF784FC95F87D0400EB800080
:102A000004EB4000284490F84F05022804D906EB57
:102A10000411002382A209E000EB400101EBC00099
:102A20007B499439421806EB041100239220FEF7EB
:102A300067FC95F87D04012300EB800004EB400067
:102A400003220021FEF7A6FC06EB04110023724AC4
:102A50000820FEF755FC641CE4B20B2CFFF441AFD8
:102A6000BDE8F09F2DE9F84F0546007802280CD00C
:102A700002D9A878FEF7EAFE2878634C4FF0FF0BE6
:102A80004FF05017012803D004E0FEF79FFEF3E754
:102A9000A878C8B13846676000902A235E221A21C0
:102AA0003620FEF76EF8DFF8648162490023D8F81B
:102AB000840300EBC00042181A213620FEF7D0FB39
:102AC0002878022804D006E05846C4F804B0E3E7AA
:102AD000A87800287DD038466760009042231E22E7
:102AE00032210020FEF74DF8002353A23221184670
:102AF000FEF7B6FBC2460326A146B8462878B04288
:102B000002D1A878022865D0C9F80480D9F8040059
:102B10000090232000EB0613132000EB06111F4644
:102B20000C464FF49972FA20FEF72BF8E87800EB88
:102B3000800006EB400000EB80010AEB8101D1F838
:102B4000F005421C7AD091F8F41501230522FEF716
:102B500021FC314A21460023FA20FEF7D1FB2878D8
:102B6000B04202D1A878032869D0C9F8048000BF18
:102B7000D9F8040000903B4621464FF4C1724FF44F
:102B8000A570FDF7FEFFE87800EB800006EB400043
:102B900000EB80010AEB810101F58051D1F8580664
:102BA000421C7AD091F85C1601230522FEF7F2FB55
:102BB000194A2146002300BF4FF4A570FEF7A0FB81
:102BC0002878B04202D1A87804287DD0C9F80480C2
:102BD00001E064E067E0D9F8040000903B4621463C
:102BE00040F2DF124FF4D270FDF7CBFFE87800EB34
:102BF000800006EB400101EB0A0000F5005090F860
:102C0000F1061DE03800310014000010980A001091
:102C10002640010034346500CC4D00105000000007
:102C20002D2D2D2D000000002D000000460000007D
:102C3000333D0100873B01004E6F2E0036E03AE045
:102C4000FF2821464FF0000341D0AFF2300200BF11
:102C50004FF4D270FEF754FB2878B04201D1A87827
:102C600088B3C9F8048000BFD9F8040000903B463F
:102C700021467E222820FDF784FFE87800EB8000C3
:102C800006EB400101EB0A0090F87B04302824D9C0
:102C900021460023AFF2780227E00FE014E0584607
:102CA000C4F804B019E7C9F804B02FE7214600239F
:102CB000AFF2940250E7C9F804B059E72146002367
:102CC000AFF2A40278E705E0C9F804B080E7AFF2FC
:102CD000B002BDE7C9F804B0C6E700EB400101EB64
:102CE000C000FE494218214600232820FEF708FBB9
:102CF0002878B04202D1A87801281AD0C9F80480F7
:102D0000D9F8040000903B462146C4227E20FDF7FE
:102D100038FFE87800EB800006EB400101EB0A0089
:102D200090F84D05022807D921460023AFF2101272
:102D30000AE0C9F804B0E3E700EB400101EBC00092
:102D4000E7494218214600237E20FEF7D9FAC9F848
:102D50000480E878012300EB800006EB40000322AA
:102D60000021801EFEF716FB21460023DD4A0820C5
:102D7000FEF7C6FA761CF6B20D2EFFF4BFAEBDE824
:102D8000F88F2DE9F843D84C4FF05017054667608F
:102D900000784FF0FF08012801D0384602E0404695
:102DA000C4F8048000902A2358221A213020FDF70D
:102DB000E8FECE48CA4E012390F87C04AA3600EB08
:102DC000800082191A213020FEF74AFA287802285A
:102DD0001ED038466760009040231E223021082014
:102DE000FDF7CFFE0123AFF2B01230210820FEF72D
:102DF00037FAFEF759FB2A78BD486FF07F41012A68
:102E00000AD0022A1AD06878BDE8F843FEF710BC51
:102E10004046C4F80480DEE7C4E9001000245425CD
:102E200004EB8400821905EB001080B20023F1212D
:102E3000FEF716FA641C022CF2D3FAE4C4E900107F
:102E4000A74F0024AB4EC2374FF4A275A7F10E086E
:102E500096F8D40018B1C4EBC400C21903E0C4EB67
:102E6000C40101EB080204EB840005EB001080B202
:102E70000023F121FEF7F4F9641C022CE8D3D8E416
:102E80002DE9F84F05460078FF26974C4FF0501774
:102E9000012819D06760606800902C23C022182197
:102EA0005820FDF76EFEDFF84C82DFF84C9298F860
:102EB000D400A9F10E0A002898F80000C0EBC00168
:102EC00004D001EB090203E06660E4E701EB0A02CB
:102ED00000231A215820FEF7C3F92878022816D0BB
:102EE000C4F8047098F8681000230422D8F864002D
:102EF000FEF750FA00237B4A30215820FEF7B0F944
:102F0000D8F86C004FF0000318B17CA202E06660B4
:102F1000E8E77BA230218A20FEF7A2F9287803286F
:102F200015D0676098F80C1000230422D8F8080028
:102F3000FEF730FA00236B4A46215820FEF790F93D
:102F4000D8F810004FF0000318B16CA202E06660E0
:102F5000E8E76BA246218A20FEF782F92878042848
:102F60006CD0676060684FF4A97B00902C234FF40D
:102F7000DD7218215846FDF704FE98F8D40010B110
:102F800098F84000F0B398F8400000EB400101EBE6
:102F9000C00053492131421800231A215846FEF738
:102FA0005FF9287805284ED0C4F8047098F8A0106E
:102FB00000230422D8F89C00FEF7ECF90023494ACC
:102FC00030215846FEF74CF900234EA230214FF431
:102FD000C170FEF745F92878062836D06760464666
:102FE00098F82C1000230422D8F82800FEF7D2F914
:102FF00000233C4A46215846FEF732F9002341A2FD
:10300000462100E01CE04FF4C170FEF729F9FEF7FD
:103010004BFA2878D8B101282DD16FF07F4020607D
:1030200033486060002457465FF0540596F8D4009A
:1030300090B1C4EBC40101EB090210E0666091E7B6
:103040000023314AA9E76660B0E76660C7E7BDE8DC
:10305000F84F0020FEF7ECBAC4EBC400C21904EB31
:10306000840005EB001080B20023F121FEF7F8F890
:10307000641C022CDAD382E62DE9F84F054600786D
:10308000FF26194C4FF05017012814D06760606874
:1030900000902C23C02218215820FDF772FDDFF884
:1030A000548098F8D400002898F80000C0EBC001C4
:1030B00003D0114803E06660E9E70F480E380A18AC
:1030C00000231A215820FEF7CBF8287802282BD0AD
:1030D00067604223C02260682E2117E0333D010063
:1030E000923F0100CC4D001014000010980A00100F
:1030F0003800310098090010173B010020A6B800E5
:103100006DA6B80020560000001A0000009058205C
:10311000FDF737FD98F8D400002898F80100C0EBBF
:10312000C00103D0F84803E06660D2E7F6480E38E5
:103130000A18002330215820FEF792F82878032837
:1031400013D06760606800906E23C022442158202D
:10315000FDF717FD98F8D400002898F8B500C0EBEB
:10316000C00104D0E8483F3003E06660EAE7E64883
:103170002A300A18002346215820FEF771F82878D3
:1031800004281BD0E148606060680090A2466E236E
:10319000C0225A215820FDF7F4FC98F8D400444688
:1031A000DFF864830028A07808F11C08A8F10E0954
:1031B000C0EBC00104D001EB080203E06660E3E766
:1031C00001EB090200235C215820FEF749F828781A
:1031D000052821D0CD48CAF80400A346217B00234E
:1031E0000422A068FEF7D6F8DAF8040000905446EE
:1031F0008423C02270215820FDF7C3FC0023C44A59
:1032000072215820FEF72CF8DBF810004FF0000375
:1032100028B1AFF2181204E0CAF80460DDE7AFF29B
:10322000201272218A20FEF71BF82878062815D074
:10323000676060680090A246B023C0229C2158209D
:10324000FDF79FFC9BF8D4005C4600289BF820000B
:10325000C0EBC00104D001EB080203E06660E8E7C0
:1032600001EB090200239E215820FDF7F9FF287881
:10327000072860D0CAF80470A34694F82C100023E5
:103280000422A06AFEF786F8DAF80400009054469B
:10329000C623C022B2215820FDF773FC00239C4AAC
:1032A000B4215820FDF7DCFF0023AFF2A812B421AF
:1032B0008820FDF7D5FF287808283FD06760606830
:1032C00000902C234FF4DD7218214FF4A970FDF704
:1032D00058FC9BF8D400DA4610B19AF8400078B355
:1032E0009AF8400000EB400101EBC00189480A1840
:1032F00000231A214FF4A970FDF7B2FF287809289E
:1033000022D0676060680090A34642234FF4DD72CC
:103310002E214FF4A970FDF734FC9AF8D4005446DE
:1033200000289AF8410011D000EB40017948A138FB
:1033300000EB81020FE0CAF804609DE76660BEE71B
:10334000FFE70023744AD4E76660DBE7C0EBC00107
:103350007048BD380A18002330214FF4A970FDF7DA
:103360007FFF28780A2825D06848CBF80400A246B9
:1033700094F84C1000230422A06CFEF70BF8DBF845
:1033800004005C464FF4A97B00906E234FF4DD727D
:103390005A215846FDF7F5FB00235D4A5C2158464B
:1033A000FDF75EFFDAF850004FF0000328B1AFF2EE
:1033B000B42204E0CBF80460D9E7AFF2BC225C2170
:1033C0004FF4C270FDF74CFF28780B2821D04F48EE
:1033D000C4F804009AF8681000230422DAF86400A4
:1033E000FDF7D8FF6068009084234FF4DD727021F0
:1033F0005846FDF7C6FB0023454A72215846FDF7A3
:103400002FFFDAF86C004FF0000320B1AFF2143256
:1034100003E06660DEE7AFF2183272214FF4C2704B
:10342000FDF71EFF28780C2854D067609AF88410A6
:1034300000230422DAF88000FDF7ACFF60680090FA
:10344000B0234FF4DD729C215846FDF79AFB002310
:103450002F4A9E215846FDF703FF0023AFF25C324E
:103460009E214FF4C170FDF7FBFE28780D2833D064
:10347000676056469AF8A01000230422DAF89C00F0
:10348000FDF788FF60680090C6234FF4DD72B2211B
:103490005F465846FDF775FB00231D4AB4213846A8
:1034A000FDF7DEFE0023AFF2A432B4214FF4C17069
:1034B000FDF7D6FEFDF7F8FF2A78184954256FF07E
:1034C0007F400A2A3BD2DFE802F0090E3B5B7D3ADF
:1034D000993AB5D76660A9E76660CAE7BDE8F84FD4
:1034E0000020FEF7FABADFF82080C4E90001A8F155
:1034F0001C080024A8F10E0796F8D40080B1C4EB94
:10350000C40101EB08020EE0333B010034346500D6
:10351000CC4D0010B33F0100001A0000380031000C
:10352000C4EBC400C21904EB840005EB001080B2A8
:103530000023F121FDF794FE641C022CDCD31EE471
:10354000DFF8E884C4E900010024A8F10E0700BFF9
:1035500096F8D40020B1C4EBC40101EB080202E0EC
:10356000C4EBC400C21904EB840005EB001080B268
:103570000023F121FDF774FE641C022CE8D37AE5E8
:10358000DFF8A884C4E9000108F13F080024A8F18D
:10359000150700BF96F8D40020B1C4EBC40101EBBD
:1035A000080202E0C4EBC400C21904EB840005EB7E
:1035B000001080B20023F121FDF752FE641C032CA1
:1035C000E8D358E5C4E9000100244F4696F8D4003A
:1035D00020B1C4EBC40101EB080202E0C4EBC4005B
:1035E000C21904EB840005EB001080B20023F12126
:1035F000FDF736FE641C022CE8D33CE5C4E900016B
:1036000000244F4696F8D40020B1C4EBC40101EB6E
:10361000080202E0C4EBC400C21904EB840005EB0D
:10362000001080B20023F121FDF71AFE641C022C69
:10363000E8D320E5C4E90001FD4F002496F8D4004A
:1036400000B18CB104EB440000EBC400C21904EBE0
:10365000840005EB001080B20023F121FDF700FE8D
:10366000641C052CEAD306E528460023F14AF12123
:10367000FDF7F6FD0124E1E7C4E900015FF0000475
:1036800096F8B400012896F8D40007D0A0B1E84914
:1036900004EB4400513901EB800211E030B1E44801
:1036A00004EB4401A13800EB810209E0E048C4EBDF
:1036B000C401BD380A1803E0DD48713800EBC402CC
:1036C00004EB840005EB001080B20023F121FDF72C
:1036D000C7FD641C042CD3D3CDE430B40C46D649CA
:1036E000134600EB40004218A0B299B230BC01234F
:1036F000FDF706BE2DE9F84FD04CD14E4FF05019D2
:103700000546C4F80490D6F820014FF4B477002899
:103710007ED00023CBA241213846FDF7F1FD0023E6
:10372000C8A24121C820FDF7EBFD2878FF2701281A
:103730006FD04846C4F8049000902C2370221821C2
:103740004620FDF71EFAD6F8B803B84900EBC000D2
:103750005431421801231A214620FDF781FD2878B3
:1037600002287DD0C4F8049096F80C11002305229D
:10377000D6F80801FDF70EFE606800902A234FF48A
:1037800092721A21E220FDF7FCF90123AE4A1A21B8
:10379000E220FDF765FDD6F81001012300EB4001A2
:1037A000A5482D380A181A214FF48E70FDF758FDE0
:1037B000287803286CD04846C4F804904FF4C078A9
:1037C00000902C234FF4E27218214046FDF7D9F9FE
:1037D0009E48D6F82011012300EB81021A214046B1
:1037E000FDF73EFD2878042855D04846C4F80490DB
:1037F0000090422370222E214620FDF7C2F9D6F810
:103800000001DFF82C8200EB800108F1AF0801E035
:103810002CE038E001EB0802002330214620FDF7C0
:103820001FFD2878052839D0C4F8049060680090FE
:10383000A34642234FF4AB722E21FA20FDF7A1F9E3
:10384000D6F82801012300EB80017948AF300A182F
:103850003021FA20FDF704FD0624B246287800E066
:1038600014E0A0421CD1CBF8047023E04122394679
:10387000D6F8B803FFF731FF4122C821D6F8B803C4
:10388000FFF72BFF51E73846676055E767606BE746
:103890003846676092E738466760A9E76760C5E722
:1038A000A4F10900042803D26948CBF8040001E020
:1038B000CBF80490DBF80400C4EB04160090701CF5
:1038C00083B20E3EB1B2DC229820FDF75AF9C4EB68
:1038D000C4010AEBC10858F8200C70B318F81C1C7E
:1038E00000230522FDF756FDB1B20123AFF6C84211
:1038F0009820FDF705FDB1B20123534AA020FDF742
:10390000FFFCDAF8200158B958F8180C012300EB35
:10391000400149482D380A18B1B2D020FDF7F0FC1B
:10392000641C102C9AD3D84610244FF4A07B28781E
:10393000A04208D1C8F804700FE0FFE70123B1B23C
:10394000444AA020EAE7A4F11300042803D2404827
:10395000C8F8040001E0C8F80490D8F80400C4EBEB
:1039600004160090A6F1910083B2A43EB1B24FF4C8
:10397000BE725846FDF705F93148C4EBC40100EBAF
:10398000C101A1F5805ADAF8CCCDBCF1000F2ED0E0
:103990009AF8D01D002305226046FDF7FBFCB1B26A
:1039A0000023294A5846FDF7ABFC2548D0F82001F2
:1039B00060B9DAF8D40D012300EB40011E482D3820
:1039C0000A18B1B24FF4B870FDF79AFC641C1A2CB7
:1039D000ADD3FDF769FD2A781F4854266FF07F416B
:1039E000062A5FD2DFE802F00820200D3A4CB1B27F
:1039F0000123184A5846E7E76878BDE8F84FFEF714
:103A00006CB8C8E90010114D002400BF04EB84001D
:103A100006EB001005EB840280B20023F121FDF7D4
:103A20001FFC641C022CF1D389E50000333B01002C
:103A3000B33F0100001A0000A94801001400001063
:103A4000980A001025000000CC4D00101A3A010021
:103A5000343465003827000038003100C8E9001010
:103A6000FD4D002404EB8400421906EB001080B2E7
:103A70000023F121FDF7F4FB641C022CF2D35EE578
:103A8000C8E90010F44D002404EB8400421906EB51
:103A9000001080B20023F121FDF7E2FB641C022C30
:103AA000F2D34CE5ED484FF4CA744FF0000390F8A0
:103AB000D40070B1EA4AF1215420FDF7D1FB002374
:103AC000E8A2E7212046FDF7CBFBE54A0023383A80
:103AD0000EE0E5A2F1215420FDF7C2FBE04A0023ED
:103AE000203AE7212046FDF7BBFBDD4A0023183AC8
:103AF00001B02046BDE8F04FFB21FDF7B1BB70B52A
:103B00000446007800281DD01A254FF4A07604281A
:103B100005D908460BF098FA04F0DBFE04E01046E5
:103B20000BF092FA02F0EAF82078012300EB400152
:103B300001EBC00005EB40013046BDE87040CC4AC7
:103B4000FDF78EBB70BD2DE9F84FCA4DDFF828B3E5
:103B5000074600244FF050184FF042094FF02E0A4C
:103B60003978601C814201D1FF2000E04046686046
:103B7000009004EB440000EBC40609EB460083B25E
:103B80000AEB460081B2E822A020FCF7FAFFB34816
:103B90001BF8041000EB84000023B0F8B8000422E6
:103BA000FDF7F8FB302000EB460081B20123B04A5C
:103BB000A020FDF755FB641C062CD1D3C5F804806A
:103BC000BDE42DE9F84F04460178FF27A9484FF0DE
:103BD0005015012918D045608146406800902C237B
:103BE000C0221A215A20FCF7CCFFDFF870A2A34EA6
:103BF0009AF8D400A6F10E0800289AF8D00005D053
:103C0000C0EBC000821905E04760E5E7C0EBC001EA
:103C100001EB080200231C215A20FDF721FB20782C
:103C200002282ED0C9F80450D9F80400009042238D
:103C3000C02230215A20FCF7A4FF9AF8D1000023BB
:103C4000C0EBC0018E480A1832215A20FDF708FB4C
:103C50002078032818D0C9F8045000BFD9F8040010
:103C600000905823C02246215A20FCF78AFF9AF878
:103C7000D40000289AF8D20009D0C0EBC000821905
:103C800009E0C9F80470CFE7C9F80470E6E7C0EBB3
:103C9000C00101EB0802002348215A20FDF7E0FA99
:103CA0002078042815D0C9F8045000BFD9F80400C2
:103CB00000906E23C0225C215A20FCF762FF9AF824
:103CC000D40000289AF8D30006D0C0EBC0008219B7
:103CD00006E0C9F80470E9E7C0EBC00101EB080297
:103CE00000235E215A20FDF7BBFA207805287DD0FD
:103CF000C9F80450D9F8040000908423C02272212E
:103D00005A20FCF73EFF5E489AF8D410103800EBBA
:103D1000C102002374215A20FDF7A2FA2078062858
:103D200065D0C9F8045000BFD9F8040000909A2368
:103D30006C2288215A20FCF724FF524801230222DA
:103D4000C0690021FDF726FB0023494A8A215A2039
:103D5000FDF786FAAB4600234BA28A216E20C9F8F4
:103D60000450FDF77DFA2078072873D0C9F804B015
:103D7000D9F8040000904D469A238A2288217820A1
:103D8000FCF7FFFE3F480123022280690021FDF776
:103D900001FB0023364A8A217820FDF761FAD946D3
:103DA000002339A28A218C20C5F804B0FDF758FA07
:103DB000207808284FD04846C5F8049000909A23F0
:103DC000AA2288219820FCF7DCFEDFF8B8B0012396
:103DD00002220021DBF80C00FDF7DCFA2449002068
:103DE0000A46887003468A21982001E0ADE0AFE0E2
:103DF000FDF736FA207809287ED04846C5F80490A9
:103E00000090B0236C229E215A20FCF7BAFE0123B9
:103E100002220021DBF80800FDF7BCFA0023144A57
:103E2000A0215A20FDF71CFA002318A2A0216E2021
:103E3000C5F80490FDF714FA20780A287CD048468B
:103E4000C5F804900090B0238A229E217820FCF7C8
:103E500098FE1DE07FE081E06240010098090010BB
:103E6000F419000044656C00C7E5B3FDD0D0000034
:103E7000CC4D001014000010143A01004F3B01001B
:103E8000084801007C4D00102D0000003A000000A1
:103E9000012302220021DBF80400FDF77BFA002356
:103EA000F74AA0217820FDF7DBF90023AFF22402C6
:103EB000A0218C20C5F80490FDF7D2F920780B28BA
:103EC00055D04846C5F804900090B023AA229E2100
:103ED0009820FCF756FE012302220021DBF80000A7
:103EE000FDF758FAE6490020034688700A46A021EB
:103EF0009820FDF7B5F900E033E020780C2839D0A0
:103F00004846C5F804900090C623C022B4215A2028
:103F1000FCF737FE0023DB4AB6215A20FDF7A0F953
:103F2000FDF7C2FA6FF07F402860D74868602078BC
:103F300054240C2841D200E016E0DFE800F01E22F5
:103F40003F516D899C9C9C9C9C9CC9F80470D1E657
:103F5000C9F80470E8E6C9F8047009E738466F60EC
:103F60002CE738466F604BE738466F606AE73846A3
:103F70006F60A9E738466F60C5E7BDE8F84FFDF709
:103F80008EBEB146002557464FEA080697F8D40082
:103F900020B1C5EBC50101EB090202E0C5EBC5008C
:103FA000821905EB850004EB001080B20023F1219B
:103FB000FDF756F96D1C022DE8D335E5B34E00250B
:103FC000C5EBC500821905EB850004EB001080B23B
:103FD0000023F121FDF744F96D1C052DF0D323E5F5
:103FE000B14600255746464697F8D40020B1C5EBA8
:103FF000C50101EB090202E0C5EBC500821905EB22
:10400000850004EB001080B20023F121FDF728F9B0
:104010006D1C022DE8D307E5B146002557464646FC
:1040200097F8D40020B1C5EBC50101EB090202E00D
:10403000C5EBC500821905EB850004EB001080B2CA
:104040000023F121FDF70CF96D1C022DE8D3EBE400
:104050008E4E0025B6F1100605EB850004EB00102E
:1040600006EBC50280B20023F121FDF7F9F86D1CC3
:10407000022DF1D3D8E4864E002500BF05EB850064
:1040800004EB001006EBC50280B20023F121FDF71E
:10409000E7F86D1C022DF1D3C6E410B5FDF77CFEE8
:1040A000BDE81040FDF700BA2DE9F041FFF7F5FF3C
:1040B000784C79486FF07F45724EC4E90050D53E88
:1040C0004FF0000396F8D40008B1744A01E0734A37
:1040D000F23A042100206E32FDF7C2F84FF0501082
:1040E000C4E900506E4F00244FF6FF75A7F1270872
:1040F00096F8D400002804EB840003D000EBC40041
:10410000C21903E000EBC40101EB080204EB8400D8
:1041100005EA401000231A21FDF7A2F8641C032CC5
:10412000E6D35F4D002427355FF0300604EB8400B2
:1041300000EBC400421904EB440000EBC40006EBA2
:10414000400081B200231846FDF78AF8641C062C53
:10415000ECD3BDE8F08108B552480090B62340F298
:10416000DF127A210020FCF70CFD08BD10B5FDF729
:1041700013FEFDF799F9BDE81040ECE72DE9F05F7B
:10418000FFF7F4FF434C44486FF07F463D4DC4E9D0
:104190000060D53D4FF0000395F8D40008B13F4AC8
:1041A00001E03E4AF23A042100208432FDF758F83B
:1041B0004FF0501BC4E9006BA146394F00247537FE
:1041C0004FF6FF7A07F13008374E01E0032C19D281
:1041D00095F8D40010B108EBC40201E007EBC4026B
:1041E00004EB84010AEA411000231A21FDF738F894
:1041F000641C062CEAD3254E00242A4F4D46D8468F
:10420000BA3E14E095F8D40010B107EBC40201E007
:1042100008EBC40204EB840006EB4010002380B2DC
:104220003021E3E7201F042801D26F6001E0C5F8C8
:104230000480C4EB0410413081B2002306EB8402F9
:104240001846FDF75DF8641C0B2CEBD3002317A276
:104250004121A020FDF754F8002315A241214FF47D
:10426000A070FDF74DF814481A224FF49371D0F85E
:10427000B803FDF74DFFBDE8F05F0020FDF72DBC52
:10428000CC4D00106D0A00103800310008480100C4
:10429000F53F010014000010F35203003645010001
:1042A000794601003434650020FEFFFF4C4F570073
:1042B0004849474800000000980A001008B5F8482F
:1042C0000090B62340F2DF127A210020FCF759FC5F
:1042D00008BD10B5FDF760FDBDE81040FDF7E4B87E
:1042E0002DE9F041FFF7F5FFEE4CEF486FF07F4608
:1042F000EE4DC4E9006095F8D4004FF0000308B11A
:10430000EB4A01E0EA4AF23A042100209A32FCF733
:10431000A7FF4FF05010C4E900600023E54A1A21BE
:104320001846FCF79DFFE34E0124E24F3F3600BFE5
:1043300095F8D400002804EBC40001D0821900E0F5
:10434000C2194D2104FB01F02F3880B20023302127
:10435000FCF786FF641C072CEAD3BDE8F04100207F
:10436000FDF7BBBBF8B500246FF07F465FF02E056C
:1043700004EB440000EBC40005EB400083B281B2C3
:10438000BE225A200096FCF72BFC641C072CEFD3AE
:10439000F8BD10B5FDF700FDBDE81040FDF784B88D
:1043A0002DE9F041FFF7F5FFBE4CBF486FF07F46A7
:1043B000BE4DC4E9006095F8D4004FF0000308B189
:1043C000BB4A01E0BA4AF23A04210020DC32FCF791
:1043D00047FF4FF05010C4E9006095F8FF001A261F
:1043E00001284FF000040ED0DFF8CC82A8F154076A
:1043F00095F8D4000028C4EBC40026D000EB40019F
:1044000001EB080224E0AC4FA83FA7F1540800BF1D
:1044100095F8D4000028C4EBC40003D000EB4000A2
:10442000C21903E000EB400101EB080204EB440079
:1044300000EBC40006EB400081B200231846FCF7F5
:104440000FFF641C042CE3D310E000EB4000C21902
:1044500004EB440000EBC40006EB400081B20023F3
:104460001846FCF7FDFE641C042CC1D38F4A0023C0
:10447000F5325C215A20FCF7F3FEBDE8F041FDF770
:104480000EBC2DE9F041FFF784FF864C86486FF0A3
:104490007F46864DC4E9006095F8D4004FF00003D4
:1044A00008B1834A01E0824AF23A04210020B03286
:1044B000FCF7D6FE4FF05010C4E900607E4F002498
:1044C000AC371A26A7F1580895F8D400002804EB59
:1044D000440000EBC40001D0C21901E000EB080267
:1044E00006EB400081B200231846FCF7B9FE641CBD
:1044F000082CE9D3FFF736FFBDE8F041FDF7CFBB4D
:104500002DE9F05F83460C46486842F20F718842FD
:1045100001D8A06805E00A21B0FBF1F0606004203A
:10452000A060C0F10406A66060680AF0E1FD0546DF
:10453000DFF888A1DFF88891E06810B1012802D087
:1045400006E0514600E0494628460AF019FE0546B5
:1045500030460AF0BDF802460B460020594909F0E2
:10456000EFF806460F4628460AF012FC32463B4654
:1045700009F012FF09F022FE5349012605464FF0CB
:104580000208884203DD0D4640F6B83008E04F4887
:104590004F49854206DB28460AF094FC0AF070FD7C
:1045A000E66023E048464FF00309854207DB5146A9
:1045B00028460AF087FC0AF063FDE6601DE04548E6
:1045C0000027854209DB444928460AF07BFC0AF0B3
:1045D00057FD211D81E8C10011E08D4209DB3F49F3
:1045E00028460AF06FFC0AF04BFDE760C4E90108B9
:1045F00005E028460AF044FDE760C4E901092846C1
:104600000AF03EFDA06121465846BDE8F05F1C223D
:1046100007F017BE808800B27047F0B4D1E90237C6
:1046200064252F4A0A264FF47A7437B1062B6ED2CE
:10463000DFE803F01D25692A5960052B63D2DFE806
:1046400003F003620C1014004B68934202D94A60D5
:10465000002200E001220A6155E04A68B2FBF4F250
:1046600050E04A68B2FBF5F24CE04A6809E04B685A
:10467000934247D84FF47A7253434B6043E04A6801
:1046800082B3B2FBF6F23DE04B6842F21072934205
:1046900001D81A4600E04A6002EB8202520031E083
:1046A0003434650014000010F35203009809001020
:1046B000364501007A4701004043010000007A447A
:1046C0000024744900002440C0E1E44B8096184B5C
:1046D00000401C460050C3470000C8420000204173
:1046E000A08601000FE04A68A24200D94C60642312
:1046F0004A6806E04A68642A00D94D604A684FF467
:104700007A735A434A60F0BC1C2207F09ABDFE4AF5
:10471000F8E72DE9F04781460C46486842F20F71F0
:104720004FF00A08884204D9B0FBF8F0606004201A
:10473000A06066684FF47A704643A068C0F1040038
:1047400009F0C6FF02460B460020F04908F0F8FFCA
:1047500007460D46304609F0BBFF3A462B4609F0A6
:104760001BFE09F071FF4EF6602142F21072884282
:1047700001D9084601E0904205D30221A160B0FBB7
:10478000F8F1616002E00321C4E90101A061214662
:104790004846BDE8F0471C2207F053BD70B50546FA
:1047A0000020C8600C4688680AF0A2FC0AF0F0FA03
:1047B00002460B460020D54908F0C2FF09F044FF2D
:1047C0006168B1FBF0F0642801D90220A0602146A5
:1047D0002846BDE870401C2207F033BD08B5CC4820
:1047E0000090372328225C213C20FCF7B1FBC9480C
:1047F0000090372328225C216420FCF7A9FBC648DF
:1048000000903723282293213C20FCF7A1FBC348CA
:1048100000903723282293216420FCF799FB08BDE0
:1048200008B5BB480090372328225C213C20FCF7C8
:104830008FFBB8480090372328225C216420FCF7C6
:1048400087FBB74800903723282293213C20FCF7B0
:104850007FFBB24800903723282293216420FCF785
:1048600077FB08BD08B5AA480090372328225C21B1
:104870003C20FCF76DFBA7480090372328225C21E1
:104880006420FCF765FBA74800903723282293217A
:104890003C20FCF75DFBA1480090372328229321A0
:1048A0006420FCF755FB08BD38B5994800903723C4
:1048B00028225C213C20FCF74BFB964C3723282216
:1048C0005C2164200094FCF743FB97480090372359
:1048D000282293213C20FCF73BFB372328229321FD
:1048E00064200094FCF734FB38BD38B5884800904C
:1048F000372328225C213C20FCF72AFB8B4C3723F2
:1049000028225C2164200094FCF722FB864800905A
:104910003723282293213C20FCF71AFB3723282237
:10492000932164200094FCF713FB38BD08B5784848
:104930000090372328225C213C20FCF709FB7B48B0
:104940000090372328225C216420FCF701FB724889
:1049500000903723282293213C20FCF7F9FA6F4876
:1049600000903723282293216420FCF7F1FA08BD38
:1049700008B567480090372328225C213C20FCF7CB
:10498000E7FA6A480090372328225C216420FCF76C
:10499000DFFA634800903723282293213C20FCF75C
:1049A000D7FA5E4800903723282293216420FCF731
:1049B000CFFA08BD08B55E480090372328225C2155
:1049C0003C20FCF7C5FA53480090372328225C218D
:1049D0006420FCF7BDFA5248009037232822932127
:1049E0003C20FCF7B5FA4D4800903723282293214C
:1049F0006420FCF7ADFA08BD38B54D480090372368
:104A000028225C213C20FCF7A3FA424C37232822C1
:104A10005C2164200094FCF79BFA43480090372304
:104A2000282293213C20FCF793FA37232822932154
:104A300064200094FCF78CFA38BD08B53C4800901F
:104A4000372328225C213C20FCF782FA3148009071
:104A5000372328225C216420FCF77AFA3248009040
:104A60003723282293213C20FCF772FA314800902A
:104A70003723282293216420FCF76AFA08BD08B581
:104A80002B480090372328225C213C20FCF760FA59
:104A900020480090372328225C216420FCF758FA34
:104AA0001D4800903723282293213C20FCF750FA20
:104AB0001A4800903723282293216420FCF748FAF3
:104AC00008BD08B51A480090372328225C213C20F5
:104AD000FCF73EFA0F480090372328225C2164201F
:104AE000FCF736FA0F4800903723282293213C2008
:104AF000FCF72EFA094800903723282293216420DE
:104B0000FCF726FA08BD000040420F0000002440D8
:104B1000A40D0100BC0E0100EC230100F6320100DF
:104B2000FF240100C6210100B32001007A1D01000D
:104B3000671C01001226010008B5FE4800903723CB
:104B400028225C213C20FCF703FAFB480090372325
:104B500028225C216420FCF7FBF9F84800903723F9
:104B6000282293213C20FCF7F3F9F54800903723E5
:104B7000282293216420FCF7EBF9C3E708B5ED4840
:104B80000090372328225C213C20FCF7E1F9EA4819
:104B90000090372328225C216420FCF7D9F9E948EA
:104BA00000903723282293213C20FCF7D1F9E448D8
:104BB00000903723282293216420FCF7C9F9A1E74C
:104BC00038B5DC480090372328225C213C20FCF7D4
:104BD000BFF9D94C372328225C2164200094FCF7CC
:104BE000B7F904F2393000903723282293213C2072
:104BF000FCF7AEF937232822932164200094FCF7B8
:104C0000A7F938BD08B5CB480090372328225C218E
:104C10003C20FCF79DF9C8480090372328225C21EE
:104C20006420FCF795F9C848009037232822932187
:104C30003C20FCF78DF9C5480090372328229321AA
:104C40006420FCF785F95DE738B5C148009037234B
:104C500028225C213C20FCF77BF9B94C3723282221
:104C60005C2164200094FCF773F9B8480090372366
:104C7000282293213C20FCF76BF93723282293212B
:104C800064200094FCF764F938BD38B5B048009052
:104C9000372328225C213C20FCF75AF9A84C372303
:104CA00028225C2164200094FCF752F9A4F6D1304C
:104CB00000903723282293213C20FCF749F9372321
:104CC0002822932164200094FCF742F938BD38B5BE
:104CD000A0480090372328225C213C20FCF738F9BB
:104CE000974C372328225C2164200094FCF730F98C
:104CF000964800903723282293213C20FCF728F97E
:104D000037232822932164200094FCF721F938BD31
:104D100038B590480090372328225C213C20FCF7CE
:104D200017F9874C372328225C2164200094FCF774
:104D30000FF9A4F6D13000903723282293213C208C
:104D4000FCF706F937232822932164200094FCF70E
:104D5000FFF838BD38B5804C4FF4AA7594F8B510FB
:104D600009B1022925D178480090372328225C21F7
:104D70003C20FCF7EDF879480090372328225C218D
:104D80002846FCF7E5F8764801784FF4967000293C
:104D9000744902D041F2A27201E041F2432211446F
:104DA0000091372328225C21FCF7D2F894F8B50053
:104DB00018B194F8B50001280ED16B4C3723282286
:104DC00093213C200094FCF7C3F837232822932139
:104DD00028460094FCF7BCF838BD08B55948009047
:104DE0003723282293213C20FCF7B2F85648009044
:104DF000372328225C213C20FCF7AAF84E4800907B
:104E0000372328225C216420FCF7A2F84C4800904C
:104E10003723282293216420FCF79AF872E608B51C
:104E200049480090372328225C213C20FCF790F869
:104E30004E480090372328225C216420FCF788F834
:104E4000404800903723282293213C20FCF780F82B
:104E50003B4800903723282293216420FCF778F800
:104E600050E608B542480090372328225C213C20B8
:104E7000FCF76EF83F4800903723282293213C200E
:104E8000FCF766F83EE62DE9FF5F00201C469246DF
:104E90004FF0010983F8020000F017FEFF28FBD154
:104EA00035484FF0FF0B90F8B803A07033480390DB
:104EB000C01D0290C01D019000E08FB3304DDFF89F
:104EC000C4806FF07F40C5E900080027FCF7ECFACA
:104ED000C5F804B02C23C02218215820CDF800B00A
:104EE000FBF74FFEA078012300EBC00126480A180B
:104EF0001A215820FCF7B4F9C5F8048000254FF0BA
:104F0000540800BF05EB850108EB01100AEBC50250
:104F10000023F121FCF7A4F96D1CEDB2052DF1D3AE
:104F200000F0D3FD0546FF2830D0761C032E2FD08D
:104F30006AE00000671C01007A1D0100EC230100FB
:104F4000F6320100FF240100B32001001226010007
:104F50008D1E0100A01F010098090010D030010033
:104F600079000010541B010055380100BC0E0100EF
:104F7000C6210100D9220100980A00101E3D01003F
:104F80001400001038003100873B010000263BE090
:104F9000012700F0B4FD0B2D49D00DDC032D4AD0C4
:104FA00004DC012D38D0022D2ED147E0092D10D080
:104FB0000A2D29D1BDE8FF9F132D36D004DC112D19
:104FC00014D0122D20D13BE0192D22D01B2D1BD146
:104FD00036E0E178FE48405CFF2802D0A0704FF038
:104FE0000009FC48A178C0F8B8130BE0E1780398F9
:104FF00014E0F848A178C0F8B813E1780198085C8B
:10500000FF2801D084F802B0B9F1000F7FF455AF4A
:10501000D0E7E178029801E0E1780198085CFF2888
:10502000E7D0A0704FF00009E3E7062100E005217A
:10503000E9480160BEE70A202070BBE70220FBE7D9
:105040000020F9E72DE9F047E44E0546DFF890A38C
:1050500096F8B500E34C8946FF276FF07F4808B10A
:10506000022818D19AF80000012802D196F8B4005D
:1050700028B1012D06D02DB1042D03D003E0C4F8D2
:10508000008000E02760D84A5C218420FCF7BDF84E
:1050900096F8B50010B1C0B2012841D19AF80000CD
:1050A00018B196F8B400012805D1022D16D0032DB1
:1050B00014D0042D12D0C4F80080484603F009FC37
:1050C000CA48CB4D0026807850B1CAA293216420F3
:1050D000FCF79BF800F029FB2E701CE02760ECE742
:1050E000B9F1000F0CD0012027602870C2A29321D3
:1050F0006420FCF78AF809F1C700C72806D908E040
:105100002E70BCA293216420FCF77FF800F00DFB09
:1051100001E000F0FDFAB44A93218420FCF775F811
:105120004FF05010C4E90080BDE8F0470023D221C1
:10513000B2A21E20FCF794B830B50C46B1A185B0E0
:10514000D1E90021CDE90121B0A2B24DD2E900128E
:10515000CDE9031201A93723085C40F2131148433B
:105160002844009028225C214FF4BE70FBF7F0FE2B
:1051700003A840F21311005D372300FB015000909B
:1051800028225C214FF4D270FBF7E2FE05B030BD5F
:1051900030B50C469BA185B0D1E90021CDE90121B4
:1051A0009AA29C4DD2E90012CDE9031201A937233E
:1051B000085C40F2131148432844009028229321B0
:1051C0004FF4BE70FBF7C4FE03A840F21311005D5C
:1051D000372300FB01500090282293214FF4D27016
:1051E000FBF7B6FED2E70EB58B4A07CA8DE807007B
:1051F0007A48694690F840008DF80200BF208DF88B
:105200000300864804F09DFB0EBD00B587B0142155
:1052100001A807F048F882480068009060208DF8E7
:1052200004006C48D0F8B81301EB41027D498B5C57
:105230008DF80530702311448DF806304A788DF8CA
:10524000072071228DF8082089788DF809108021B7
:1052500090228DF80A108DF80C2090F8C4238DF858
:105260000D20A0228DF80E2090F820248DF80F201C
:10527000B0228DF8102090F818248DF81120C0224B
:105280008DF8122090F824248DF81320E0228DF858
:10529000142090F8D0038DF80B008DF81510BF2066
:1052A0008DF8160000208DF8170069465B4804F061
:1052B00048FB07B000BD0EB5574A0C3207CA8DE84F
:1052C00007006946554804F03CFB0EBD01465648B0
:1052D00004F037BB00B585B0002051490190029021
:1052E000039004904968009110218DF801100D2160
:1052F0008DF802104D4909788DF80310BF218DF803
:105300000A108DF804008DF80B006946434804F03C
:1053100018FB05B000BD10B50C463F4900EB40003E
:10532000703942180123C8218020FBF799FF04EB54
:1053300044003949012343394218C821BDE81040CF
:105340008820FBF78DBF10B50C46334900EB4000B9
:10535000703942180023C8214FF4C270FBF780FF58
:1053600004EB44002C49002343394218BDE81040A7
:10537000C8214FF4C670FBF773BF30B58DB018224B
:105380002BA1684606F05DFF18222FA106A806F0A3
:1053900058FF14494FF0501001234860304AC8218B
:1053A0003420FBF75DFF2E4A01230A32C8214FF457
:1053B0009C70FBF755FF074C294DD4F8B803713D9D
:1053C0001DF8001015F89D0FFFF7A5FF06A949E08D
:1053D000173D0100980A00108C0000109809001079
:1053E0004400001014000010CC4D00107900001093
:1053F00038000010200000002D0000005465737478
:105400002E2E2E000C0F1011160E0D00121314026A
:105410000B171600541B0100EC48010000C00040AF
:105420000C3A01004C49010000C009407000001016
:105430000000000000000001010101010101010262
:105440000203030202020000060603020606020629
:105450000202060606020205040504020606000012
:10546000714C0010D4F8B803095C6878FFF76BFF43
:105470000DB030BD2DE9F047894F8A4D8A4E00248A
:105480004FF050184FF4C379A01E052801D3082C03
:1054900001D96F6001E0C5F80480002356F82400AC
:1054A00006221946FBF776FFC4EB041101237F4A5D
:1054B00048463A31FBF724FF641CE4B20B2CE3D3DB
:1054C000BDE8F08789B280B2012379A2FBF7C8BE9C
:1054D00089B280B2012377A2FBF7C2BE764808B535
:1054E000764990F8B8230A7090F8C0234A7090F873
:1054F000C42390F8C833CB7090F8D0330B7190F878
:1055000018344B7190F82034CB7190F824340B721E
:1055100090F828344B728A7090F874248A7290F84C
:105520007804C87265484FF418726549443006F033
:1055300088FE4FF4807000230090624A1946184696
:1055400004F042FF6AE408B54FF480700023009035
:105550005C4A1946184604F0AEFF5FE430B559497D
:1055600000230878012800D90B704878012800D959
:105570004B708878012800D98B704C6E42F20F7006
:105580004FF47A72844200D94A668C6E032C01D99A
:1055900002248C66CC6E012C00D9CB6691F8204099
:1055A000012C01D981F8203091F84140022C01D919
:1055B00081F841308C6C844200D98A64CD6C03241C
:1055C000032D00D9CC640D6D012D00D90B654D6EF6
:1055D000854200D94A668D6E032D00D98C66CD6E4A
:1055E000012D00D9CB66D1F88030834201D9C1F8B2
:1055F0008020D1F88430032B01D9C1F884408B6A14
:10560000834200D98A62C86A032800D9CC622E4A34
:10561000002000BF01EB800302EB8005B3F8B84027
:105620006D88AC4203D832F82050AC4203D232F835
:105630002040A3F8B840401CC0B20628EAD3224A52
:105640000020183A01EB800302EB8005B3F8BA4062
:105650006D88AC4203D832F82050AC4203D232F805
:105660002040A3F8BA40401CC0B20628EAD330BD9F
:105670000C4908B54FF050124A60012801D018B10A
:1056800004E04FF47F4000E0FF2008600F480090E6
:1056900018233022F1214FF4D470FBF759FC51E765
:1056A00034346500140000109C4D0010CC4D0010E7
:1056B000560000006D410000980A00105C4900107F
:1056C000980B001098090010D44801007C390100A3
:1056D000F7484168491C416070474FF480510020F1
:1056E00003F0A5BC10B54FF48001002003F09FFC2F
:1056F0004FF40061022003F09AFC0421012003F022
:1057000096FC1021052003F092FCBDE81040E4E770
:1057100010B5012254052146002003F072FC2146F9
:10572000BDE81040002003F07ABC10B501225405FA
:105730002146002003F065FC2146BDE81040002012
:1057400003F075BC10B54FF48001002003F067FC36
:10575000BDE810404FF40061022003F068BC10B5B2
:105760004FF40061022003F05AFCBDE810404FF4F2
:105770008001002003F05BBC4FF48051002003F057
:105780004EBC4FF48041012003F049BC4FF48041EE
:10579000012003F04CBC0121084603F040BC01216C
:1057A000084603F044BC4FF40071012003F03FBCF5
:1057B0004FF40071012003F032BC10B50421012028
:1057C00003F02DFC1021052003F031FCBDE8104052
:1057D000C5E70221084603F02ABC10B504210120C8
:1057E00003F025FC1021052003F021FC4FF400718B
:1057F000012003F01CFCBDE81040EAE710B51021C1
:10580000052003F00CFC0421012003F010FCBDE88E
:10581000104097E7A64A516853685B1A8342FBD34E
:10582000704710B500284FF480114FF0000002D0EF
:1058300003F0F5FB01E003F0FAFBBDE81040142093
:10584000E8E710B54FF48061002003F0E8FB4FF06B
:105850008061022003F0EBFBBDE810400020E0E790
:1058600010B54FF08061022003F0D9FB4FF4806146
:10587000002003F0DCFBBDE810400120D1E702214D
:10588000084603F0CCBB10B501229102002003F0C2
:10589000B8FB01229106022003F0B3FB0122102184
:1058A000052003F0AEFB01220421104603F0A9FB02
:1058B00001221146104603F0A4FB01229103104679
:1058C00003F09FFB01221103002003F09AFB012249
:1058D0000221BDE81040084603F093BB10B5012239
:1058E0001105002003F08DFB01229105002003F03B
:1058F00088FB01229102022003F083FB0122D402E3
:105900002146022003F07DFB21460022BDE8104025
:10591000104603F076BB10B5012254022146104612
:1059200003F06FFB01229102104603F06AFB012293
:105930000221104603F065FB0022A103104603F08C
:1059400060FB0022E103104603F05BFB0022210410
:10595000104603F056FB00226104104603F051FB91
:105960000022A102104603F04CFB0022A1010120FD
:1059700003F047FB2146BDE81040012003F04FBB78
:105980000020401EC0B20A28FBD3704770B5044601
:105990000221012003F04BFB00254FF48066200616
:1059A00031464FF0010002D503F039FB01E003F06E
:1059B0003EFB0221012003F032FBFFF7E1FF022151
:1059C000012003F034FB60066D1C040EEDB2082DBF
:1059D000E5D370BD10B5FFF79EFFBDE81040FF2076
:1059E000D4E72DE9F041FF2425460020FFF7CEFF44
:1059F000002003F027FB000201D4002613E0002062
:105A000003F020FBC00101D401260CE0002003F0CC
:105A100019FB800101D4022605E0002003F012FBEF
:105A200040010DD40326234F0024385DFFF7AEFF5D
:105A3000BEB1012E1AD0022E1DD0032E29D11FE097
:105A40004FF40021002003F0EAFA4FF40041012056
:105A500003F0E5FA012003F0F5FA000421D40F2445
:105A600030E0002003F0EEFA00020DE0002003F029
:105A7000E9FAC00108E0002003F0E4FA800103E045
:105A8000002003F0DFFA4001002802DB2546FF2C4E
:105A900003D1641CE4B2082CC7D305EBC600C4B222
:105AA00010E0002003F0CEFA000505D4072409E039
:105AB0003C0000100E490100002003F0C3FA00036F
:105AC00000D437242046BDE8F08110B5FFF789FFE8
:105AD0000F4CFF28207009D00A20FFF79BFEFFF72C
